{
	"data": {
		"bytecode": {
			"linkReferences": {},
			"object": "608060405260405180604001604052807377d465ddf72c49032d12b14d630ff877e4dc762973ffffffffffffffffffffffffffffffffffffffff1673ffffffffffffffffffffffffffffffffffffffff1681526020017350d3b84a2b1787b7704dd50c67733b6b5b29362973ffffffffffffffffffffffffffffffffffffffff1673ffffffffffffffffffffffffffffffffffffffff1681525060029060026100a99291906100bb565b503480156100b5575f80fd5b5061015d565b828054828255905f5260205f20908101928215610131579160200282015b82811115610130578251825f6101000a81548173ffffffffffffffffffffffffffffffffffffffff021916908373ffffffffffffffffffffffffffffffffffffffff160217905550916020019190600101906100d9565b5b50905061013e9190610142565b5090565b5b80821115610159575f815f905550600101610143565b5090565b6121968061016a5f395ff3fe608060405234801561000f575f80fd5b5060043610610086575f3560e01c80636a51b918116100595780636a51b9181461012457806370480275146101545780637946bcf414610170578063ab6c073a146101a557610086565b80630de062371461008a57806314bfd6d0146100ba5780632c233de6146100ea57806331ae450b14610106575b5f80fd5b6100a4600480360381019061009f919061110c565b6101c1565b6040516100b1919061132e565b60405180910390f35b6100d460048036038101906100cf9190611378565b61040a565b6040516100e191906113e2565b60405180910390f35b61010460048036038101906100ff919061141d565b610445565b005b61010e61091b565b60405161011b919061151b565b60405180910390f35b61013e60048036038101906101399190611378565b6109a6565b60405161014b9190611583565b60405180910390f35b61016e600480360381019061016991906115cd565b610a4c565b005b61018a60048036038101906101859190611720565b610b85565b60405161019c96959493929190611789565b60405180910390f35b6101bf60048036038101906101ba91906117fd565b610d80565b005b60605f83836040516101d4929190611888565b9081526020016040518091039020805480602002602001604051908101604052809291908181526020015f905b828210156103fe578382905f5260205f2090600602016040518060c00160405290815f82018054610231906118cd565b80601f016020809104026020016040519081016040528092919081815260200182805461025d906118cd565b80156102a85780601f1061027f576101008083540402835291602001916102a8565b820191905f5260205f20905b81548152906001019060200180831161028b57829003601f168201915b505050505081526020016001820180546102c1906118cd565b80601f01602080910402602001604051908101604052809291908181526020018280546102ed906118cd565b80156103385780601f1061030f57610100808354040283529160200191610338565b820191905f5260205f20905b81548152906001019060200180831161031b57829003601f168201915b5050505050815260200160028201548152602001600382015481526020016004820154815260200160058201805461036f906118cd565b80601f016020809104026020016040519081016040528092919081815260200182805461039b906118cd565b80156103e65780601f106103bd576101008083540402835291602001916103e6565b820191905f5260205f20905b8154815290600101906020018083116103c957829003601f168201915b50505050508152505081526020019060010190610201565b50505050905092915050565b60028181548110610419575f80fd5b905f5260205f20015f915054906101000a900473ffffffffffffffffffffffffffffffffffffffff1681565b5f805b6002805490508110156104d9573373ffffffffffffffffffffffffffffffffffffffff16600282815481106104805761047f6118fd565b5b905f5260205f20015f9054906101000a900473ffffffffffffffffffffffffffffffffffffffff1673ffffffffffffffffffffffffffffffffffffffff16036104cc57600191506104d9565b8080600101915050610448565b508061051a576040517f08c379a00000000000000000000000000000000000000000000000000000000081526004016105119061199a565b60405180910390fd5b5f805b60018054905081101561082f575f5b5f60018381548110610541576105406118fd565b5b905f5260205f20016040516105569190611a4a565b90815260200160405180910390208054905081101561081c5784608001355f60018481548110610589576105886118fd565b5b905f5260205f200160405161059e9190611a4a565b908152602001604051809103902082815481106105be576105bd6118fd565b5b905f5260205f209060060201600401540361080f57600182815481106105e7576105e66118fd565b5b905f5260205f20015f60018481548110610604576106036118fd565b5b905f5260205f20016040516106199190611a4a565b90815260200160405180910390208281548110610639576106386118fd565b5b905f5260205f2090600602015f0190816106539190611c12565b508480602001906106649190611d03565b5f60018581548110610679576106786118fd565b5b905f5260205f200160405161068e9190611a4a565b908152602001604051809103902083815481106106ae576106ad6118fd565b5b905f5260205f20906006020160010191826106ca929190611d6f565b5084604001355f600184815481106106e5576106e46118fd565b5b905f5260205f20016040516106fa9190611a4a565b9081526020016040518091039020828154811061071a576107196118fd565b5b905f5260205f2090600602016002018190555084606001355f60018481548110610747576107466118fd565b5b905f5260205f200160405161075c9190611a4a565b9081526020016040518091039020828154811061077c5761077b6118fd565b5b905f5260205f20906006020160030181905550848060a0019061079f9190611d03565b5f600185815481106107b4576107b36118fd565b5b905f5260205f20016040516107c99190611a4a565b908152602001604051809103902083815481106107e9576107e86118fd565b5b905f5260205f2090600602016005019182610805929190611d6f565b506001925061081c565b808060010191505061052c565b508161082f57808060010191505061051d565b5080610916575f8084805f01906108469190611d03565b604051610854929190611888565b908152602001604051809103902080549050036108b457600183805f019061087c9190611d03565b90918060018154018082558091505060019003905f5260205f20015f9091929091929091929091925091826108b2929190611d6f565b505b5f83805f01906108c49190611d03565b6040516108d2929190611888565b908152602001604051809103902083908060018154018082558091505060019003905f5260205f2090600602015f9091909190915081816109139190611f98565b50505b505050565b6060600280548060200260200160405190810160405280929190818152602001828054801561099c57602002820191905f5260205f20905b815f9054906101000a900473ffffffffffffffffffffffffffffffffffffffff1673ffffffffffffffffffffffffffffffffffffffff1681526020019060010190808311610953575b5050505050905090565b600181815481106109b5575f80fd5b905f5260205f20015f9150905080546109cd906118cd565b80601f01602080910402602001604051908101604052809291908181526020018280546109f9906118cd565b8015610a445780601f10610a1b57610100808354040283529160200191610a44565b820191905f5260205f20905b815481529060010190602001808311610a2757829003601f168201915b505050505081565b5f805b600280549050811015610ae0573373ffffffffffffffffffffffffffffffffffffffff1660028281548110610a8757610a866118fd565b5b905f5260205f20015f9054906101000a900473ffffffffffffffffffffffffffffffffffffffff1673ffffffffffffffffffffffffffffffffffffffff1603610ad35760019150610ae0565b8080600101915050610a4f565b5080610b21576040517f08c379a0000000000000000000000000000000000000000000000000000000008152600401610b189061199a565b60405180910390fd5b600282908060018154018082558091505060019003905f5260205f20015f9091909190916101000a81548173ffffffffffffffffffffffffffffffffffffffff021916908373ffffffffffffffffffffffffffffffffffffffff1602179055505050565b5f828051602081018201805184825260208301602085012081835280955050505050508181548110610bb5575f80fd5b905f5260205f2090600602015f9150915050805f018054610bd5906118cd565b80601f0160208091040260200160405190810160405280929190818152602001828054610c01906118cd565b8015610c4c5780601f10610c2357610100808354040283529160200191610c4c565b820191905f5260205f20905b815481529060010190602001808311610c2f57829003601f168201915b505050505090806001018054610c61906118cd565b80601f0160208091040260200160405190810160405280929190818152602001828054610c8d906118cd565b8015610cd85780601f10610caf57610100808354040283529160200191610cd8565b820191905f5260205f20905b815481529060010190602001808311610cbb57829003601f168201915b505050505090806002015490806003015490806004015490806005018054610cff906118cd565b80601f0160208091040260200160405190810160405280929190818152602001828054610d2b906118cd565b8015610d765780601f10610d4d57610100808354040283529160200191610d76565b820191905f5260205f20905b815481529060010190602001808311610d5957829003601f168201915b5050505050905086565b5f5b5f8383604051610d93929190611888565b90815260200160405180910390208054905081101561103b57835f8484604051610dbe929190611888565b90815260200160405180910390208281548110610dde57610ddd6118fd565b5b905f5260205f209060060201600401540361102e575f8383604051610e04929190611888565b90815260200160405180910390208181548110610e2457610e236118fd565b5b905f5260205f2090600602015f8082015f610e3f9190611042565b600182015f610e4e9190611042565b600282015f9055600382015f9055600482015f9055600582015f610e729190611042565b50505f8190505b60015f8585604051610e8c929190611888565b908152602001604051809103902080549050610ea89190611fd3565b811015610fa0575f8484604051610ec0929190611888565b9081526020016040518091039020600182610edb9190612006565b81548110610eec57610eeb6118fd565b5b905f5260205f2090600602015f8585604051610f09929190611888565b90815260200160405180910390208281548110610f2957610f286118fd565b5b905f5260205f2090600602015f8201815f019081610f47919061204e565b5060018201816001019081610f5c919061204e565b5060028201548160020155600382015481600301556004820154816004015560058201816005019081610f8f919061204e565b509050508080600101915050610e79565b505f8383604051610fb2929190611888565b9081526020016040518091039020805480610fd057610fcf612133565b5b600190038181905f5260205f2090600602015f8082015f610ff19190611042565b600182015f6110009190611042565b600282015f9055600382015f9055600482015f9055600582015f6110249190611042565b505090555061103d565b8080600101915050610d82565b505b505050565b50805461104e906118cd565b5f825580601f1061105f575061107c565b601f0160209004905f5260205f209081019061107b919061107f565b5b50565b5b80821115611096575f815f905550600101611080565b5090565b5f604051905090565b5f80fd5b5f80fd5b5f80fd5b5f80fd5b5f80fd5b5f8083601f8401126110cc576110cb6110ab565b5b8235905067ffffffffffffffff8111156110e9576110e86110af565b5b602083019150836001820283011115611105576111046110b3565b5b9250929050565b5f8060208385031215611122576111216110a3565b5b5f83013567ffffffffffffffff81111561113f5761113e6110a7565b5b61114b858286016110b7565b92509250509250929050565b5f81519050919050565b5f82825260208201905092915050565b5f819050602082019050919050565b5f81519050919050565b5f82825260208201905092915050565b8281835e5f83830152505050565b5f601f19601f8301169050919050565b5f6111c282611180565b6111cc818561118a565b93506111dc81856020860161119a565b6111e5816111a8565b840191505092915050565b5f819050919050565b611202816111f0565b82525050565b5f60c083015f8301518482035f86015261122282826111b8565b9150506020830151848203602086015261123c82826111b8565b915050604083015161125160408601826111f9565b50606083015161126460608601826111f9565b50608083015161127760808601826111f9565b5060a083015184820360a086015261128f82826111b8565b9150508091505092915050565b5f6112a78383611208565b905092915050565b5f602082019050919050565b5f6112c582611157565b6112cf8185611161565b9350836020820285016112e185611171565b805f5b8581101561131c57848403895281516112fd858261129c565b9450611308836112af565b925060208a019950506001810190506112e4565b50829750879550505050505092915050565b5f6020820190508181035f83015261134681846112bb565b905092915050565b611357816111f0565b8114611361575f80fd5b50565b5f813590506113728161134e565b92915050565b5f6020828403121561138d5761138c6110a3565b5b5f61139a84828501611364565b91505092915050565b5f73ffffffffffffffffffffffffffffffffffffffff82169050919050565b5f6113cc826113a3565b9050919050565b6113dc816113c2565b82525050565b5f6020820190506113f55f8301846113d3565b92915050565b5f80fd5b5f60c08284031215611414576114136113fb565b5b81905092915050565b5f60208284031215611432576114316110a3565b5b5f82013567ffffffffffffffff81111561144f5761144e6110a7565b5b61145b848285016113ff565b91505092915050565b5f81519050919050565b5f82825260208201905092915050565b5f819050602082019050919050565b611496816113c2565b82525050565b5f6114a7838361148d565b60208301905092915050565b5f602082019050919050565b5f6114c982611464565b6114d3818561146e565b93506114de8361147e565b805f5b8381101561150e5781516114f5888261149c565b9750611500836114b3565b9250506001810190506114e1565b5085935050505092915050565b5f6020820190508181035f83015261153381846114bf565b905092915050565b5f82825260208201905092915050565b5f61155582611180565b61155f818561153b565b935061156f81856020860161119a565b611578816111a8565b840191505092915050565b5f6020820190508181035f83015261159b818461154b565b905092915050565b6115ac816113c2565b81146115b6575f80fd5b50565b5f813590506115c7816115a3565b92915050565b5f602082840312156115e2576115e16110a3565b5b5f6115ef848285016115b9565b91505092915050565b5f80fd5b7f4e487b71000000000000000000000000000000000000000000000000000000005f52604160045260245ffd5b611632826111a8565b810181811067ffffffffffffffff82111715611651576116506115fc565b5b80604052505050565b5f61166361109a565b905061166f8282611629565b919050565b5f67ffffffffffffffff82111561168e5761168d6115fc565b5b611697826111a8565b9050602081019050919050565b828183375f83830152505050565b5f6116c46116bf84611674565b61165a565b9050828152602081018484840111156116e0576116df6115f8565b5b6116eb8482856116a4565b509392505050565b5f82601f830112611707576117066110ab565b5b81356117178482602086016116b2565b91505092915050565b5f8060408385031215611736576117356110a3565b5b5f83013567ffffffffffffffff811115611753576117526110a7565b5b61175f858286016116f3565b925050602061177085828601611364565b9150509250929050565b611783816111f0565b82525050565b5f60c0820190508181035f8301526117a1818961154b565b905081810360208301526117b5818861154b565b90506117c4604083018761177a565b6117d1606083018661177a565b6117de608083018561177a565b81810360a08301526117f0818461154b565b9050979650505050505050565b5f805f60408486031215611814576118136110a3565b5b5f61182186828701611364565b935050602084013567ffffffffffffffff811115611842576118416110a7565b5b61184e868287016110b7565b92509250509250925092565b5f81905092915050565b5f61186f838561185a565b935061187c8385846116a4565b82840190509392505050565b5f611894828486611864565b91508190509392505050565b7f4e487b71000000000000000000000000000000000000000000000000000000005f52602260045260245ffd5b5f60028204905060018216806118e457607f821691505b6020821081036118f7576118f66118a0565b5b50919050565b7f4e487b71000000000000000000000000000000000000000000000000000000005f52603260045260245ffd5b7f4f6e6c792061646d696e732063616e206578656375746520746869732066756e5f8201527f6374696f6e000000000000000000000000000000000000000000000000000000602082015250565b5f61198460258361153b565b915061198f8261192a565b604082019050919050565b5f6020820190508181035f8301526119b181611978565b9050919050565b5f819050815f5260205f209050919050565b5f81546119d6816118cd565b6119e0818661185a565b9450600182165f81146119fa5760018114611a0f57611a41565b60ff1983168652811515820286019350611a41565b611a18856119b8565b5f5b83811015611a3957815481890152600182019150602081019050611a1a565b838801955050505b50505092915050565b5f611a5582846119ca565b915081905092915050565b5f81549050611a6e816118cd565b9050919050565b5f819050815f5260205f209050919050565b5f6020601f8301049050919050565b5f82821b905092915050565b5f60088302611ad17fffffffffffffffffffffffffffffffffffffffffffffffffffffffffffffffff82611a96565b611adb8683611a96565b95508019841693508086168417925050509392505050565b5f819050919050565b5f611b16611b11611b0c846111f0565b611af3565b6111f0565b9050919050565b5f819050919050565b611b2f83611afc565b611b43611b3b82611b1d565b848454611aa2565b825550505050565b5f90565b611b57611b4b565b611b62818484611b26565b505050565b5b81811015611b8557611b7a5f82611b4f565b600181019050611b68565b5050565b601f821115611bca57611b9b816119b8565b611ba484611a87565b81016020851015611bb3578190505b611bc7611bbf85611a87565b830182611b67565b50505b505050565b5f82821c905092915050565b5f611bea5f1984600802611bcf565b1980831691505092915050565b5f611c028383611bdb565b9150826002028217905092915050565b818103611c20575050611cf5565b611c2982611a60565b67ffffffffffffffff811115611c4257611c416115fc565b5b611c4c82546118cd565b611c57828285611b89565b5f601f831160018114611c84575f8415611c72578287015490505b611c7c8582611bf7565b865550611cee565b601f198416611c9287611a75565b9650611c9d866119b8565b5f5b82811015611cc457848901548255600182019150600185019450602081019050611c9f565b86831015611ce15784890154611cdd601f891682611bdb565b8355505b6001600288020188555050505b5050505050505b565b5f80fd5b5f80fd5b5f80fd5b5f8083356001602003843603038112611d1f57611d1e611cf7565b5b80840192508235915067ffffffffffffffff821115611d4157611d40611cfb565b5b602083019250600182023603831315611d5d57611d5c611cff565b5b509250929050565b5f82905092915050565b611d798383611d65565b67ffffffffffffffff811115611d9257611d916115fc565b5b611d9c82546118cd565b611da7828285611b89565b5f601f831160018114611dd4575f8415611dc2578287013590505b611dcc8582611bf7565b865550611e33565b601f198416611de2866119b8565b5f5b82811015611e0957848901358255600182019150602085019450602081019050611de4565b86831015611e265784890135611e22601f891682611bdb565b8355505b6001600288020188555050505b50505050505050565b611e47838383611d6f565b505050565b5f8135611e588161134e565b80915050919050565b5f815f1b9050919050565b5f7fffffffffffffffffffffffffffffffffffffffffffffffffffffffffffffffff611e9784611e61565b9350801983169250808416831791505092915050565b611eb682611afc565b611ec9611ec282611b1d565b8354611e6c565b8255505050565b5f81015f8301611ee08185611d03565b611eeb818386611e3c565b505050506001810160208301611f018185611d03565b611f0c818386611e3c565b50505050600281016040830180611f2281611e4c565b9050611f2e8184611ead565b505050600381016060830180611f4381611e4c565b9050611f4f8184611ead565b505050600481016080830180611f6481611e4c565b9050611f708184611ead565b5050506005810160a08301611f858185611d03565b611f90818386611e3c565b505050505050565b611fa28282611ed0565b5050565b7f4e487b71000000000000000000000000000000000000000000000000000000005f52601160045260245ffd5b5f611fdd826111f0565b9150611fe8836111f0565b925082820390508181111561200057611fff611fa6565b5b92915050565b5f612010826111f0565b915061201b836111f0565b925082820190508082111561203357612032611fa6565b5b92915050565b5f81549050612047816118cd565b9050919050565b81810361205c575050612131565b61206582612039565b67ffffffffffffffff81111561207e5761207d6115fc565b5b61208882546118cd565b612093828285611b89565b5f601f8311600181146120c0575f84156120ae578287015490505b6120b88582611bf7565b86555061212a565b601f1984166120ce876119b8565b96506120d9866119b8565b5f5b82811015612100578489015482556001820191506001850194506020810190506120db565b8683101561211d5784890154612119601f891682611bdb565b8355505b6001600288020188555050505b5050505050505b565b7f4e487b71000000000000000000000000000000000000000000000000000000005f52603160045260245ffdfea264697066735822122035a74c8b67227371ddd8a9855a6cd25b34a613166b81fad7655abee303fb58dc64736f6c634300081a0033",
			"opcodes": "PUSH1 0x80 PUSH1 0x40 MSTORE PUSH1 0x40 MLOAD DUP1 PUSH1 0x40 ADD PUSH1 0x40 MSTORE DUP1 PUSH20 0x77D465DDF72C49032D12B14D630FF877E4DC7629 PUSH20 0xFFFFFFFFFFFFFFFFFFFFFFFFFFFFFFFFFFFFFFFF AND PUSH20 0xFFFFFFFFFFFFFFFFFFFFFFFFFFFFFFFFFFFFFFFF AND DUP2 MSTORE PUSH1 0x20 ADD PUSH20 0x50D3B84A2B1787B7704DD50C67733B6B5B293629 PUSH20 0xFFFFFFFFFFFFFFFFFFFFFFFFFFFFFFFFFFFFFFFF AND PUSH20 0xFFFFFFFFFFFFFFFFFFFFFFFFFFFFFFFFFFFFFFFF AND DUP2 MSTORE POP PUSH1 0x2 SWAP1 PUSH1 0x2 PUSH2 0xA9 SWAP3 SWAP2 SWAP1 PUSH2 0xBB JUMP JUMPDEST POP CALLVALUE DUP1 ISZERO PUSH2 0xB5 JUMPI PUSH0 DUP1 REVERT JUMPDEST POP PUSH2 0x15D JUMP JUMPDEST DUP3 DUP1 SLOAD DUP3 DUP3 SSTORE SWAP1 PUSH0 MSTORE PUSH1 0x20 PUSH0 KECCAK256 SWAP1 DUP2 ADD SWAP3 DUP3 ISZERO PUSH2 0x131 JUMPI SWAP2 PUSH1 0x20 MUL DUP3 ADD JUMPDEST DUP3 DUP2 GT ISZERO PUSH2 0x130 JUMPI DUP3 MLOAD DUP3 PUSH0 PUSH2 0x100 EXP DUP2 SLOAD DUP2 PUSH20 0xFFFFFFFFFFFFFFFFFFFFFFFFFFFFFFFFFFFFFFFF MUL NOT AND SWAP1 DUP4 PUSH20 0xFFFFFFFFFFFFFFFFFFFFFFFFFFFFFFFFFFFFFFFF AND MUL OR SWAP1 SSTORE POP SWAP2 PUSH1 0x20 ADD SWAP2 SWAP1 PUSH1 0x1 ADD SWAP1 PUSH2 0xD9 JUMP JUMPDEST JUMPDEST POP SWAP1 POP PUSH2 0x13E SWAP2 SWAP1 PUSH2 0x142 JUMP JUMPDEST POP SWAP1 JUMP JUMPDEST JUMPDEST DUP1 DUP3 GT ISZERO PUSH2 0x159 JUMPI PUSH0 DUP2 PUSH0 SWAP1 SSTORE POP PUSH1 0x1 ADD PUSH2 0x143 JUMP JUMPDEST POP SWAP1 JUMP JUMPDEST PUSH2 0x2196 DUP1 PUSH2 0x16A PUSH0 CODECOPY PUSH0 RETURN INVALID PUSH1 0x80 PUSH1 0x40 MSTORE CALLVALUE DUP1 ISZERO PUSH2 0xF JUMPI PUSH0 DUP1 REVERT JUMPDEST POP PUSH1 0x4 CALLDATASIZE LT PUSH2 0x86 JUMPI PUSH0 CALLDATALOAD PUSH1 0xE0 SHR DUP1 PUSH4 0x6A51B918 GT PUSH2 0x59 JUMPI DUP1 PUSH4 0x6A51B918 EQ PUSH2 0x124 JUMPI DUP1 PUSH4 0x70480275 EQ PUSH2 0x154 JUMPI DUP1 PUSH4 0x7946BCF4 EQ PUSH2 0x170 JUMPI DUP1 PUSH4 0xAB6C073A EQ PUSH2 0x1A5 JUMPI PUSH2 0x86 JUMP JUMPDEST DUP1 PUSH4 0xDE06237 EQ PUSH2 0x8A JUMPI DUP1 PUSH4 0x14BFD6D0 EQ PUSH2 0xBA JUMPI DUP1 PUSH4 0x2C233DE6 EQ PUSH2 0xEA JUMPI DUP1 PUSH4 0x31AE450B EQ PUSH2 0x106 JUMPI JUMPDEST PUSH0 DUP1 REVERT JUMPDEST PUSH2 0xA4 PUSH1 0x4 DUP1 CALLDATASIZE SUB DUP2 ADD SWAP1 PUSH2 0x9F SWAP2 SWAP1 PUSH2 0x110C JUMP JUMPDEST PUSH2 0x1C1 JUMP JUMPDEST PUSH1 0x40 MLOAD PUSH2 0xB1 SWAP2 SWAP1 PUSH2 0x132E JUMP JUMPDEST PUSH1 0x40 MLOAD DUP1 SWAP2 SUB SWAP1 RETURN JUMPDEST PUSH2 0xD4 PUSH1 0x4 DUP1 CALLDATASIZE SUB DUP2 ADD SWAP1 PUSH2 0xCF SWAP2 SWAP1 PUSH2 0x1378 JUMP JUMPDEST PUSH2 0x40A JUMP JUMPDEST PUSH1 0x40 MLOAD PUSH2 0xE1 SWAP2 SWAP1 PUSH2 0x13E2 JUMP JUMPDEST PUSH1 0x40 MLOAD DUP1 SWAP2 SUB SWAP1 RETURN JUMPDEST PUSH2 0x104 PUSH1 0x4 DUP1 CALLDATASIZE SUB DUP2 ADD SWAP1 PUSH2 0xFF SWAP2 SWAP1 PUSH2 0x141D JUMP JUMPDEST PUSH2 0x445 JUMP JUMPDEST STOP JUMPDEST PUSH2 0x10E PUSH2 0x91B JUMP JUMPDEST PUSH1 0x40 MLOAD PUSH2 0x11B SWAP2 SWAP1 PUSH2 0x151B JUMP JUMPDEST PUSH1 0x40 MLOAD DUP1 SWAP2 SUB SWAP1 RETURN JUMPDEST PUSH2 0x13E PUSH1 0x4 DUP1 CALLDATASIZE SUB DUP2 ADD SWAP1 PUSH2 0x139 SWAP2 SWAP1 PUSH2 0x1378 JUMP JUMPDEST PUSH2 0x9A6 JUMP JUMPDEST PUSH1 0x40 MLOAD PUSH2 0x14B SWAP2 SWAP1 PUSH2 0x1583 JUMP JUMPDEST PUSH1 0x40 MLOAD DUP1 SWAP2 SUB SWAP1 RETURN JUMPDEST PUSH2 0x16E PUSH1 0x4 DUP1 CALLDATASIZE SUB DUP2 ADD SWAP1 PUSH2 0x169 SWAP2 SWAP1 PUSH2 0x15CD JUMP JUMPDEST PUSH2 0xA4C JUMP JUMPDEST STOP JUMPDEST PUSH2 0x18A PUSH1 0x4 DUP1 CALLDATASIZE SUB DUP2 ADD SWAP1 PUSH2 0x185 SWAP2 SWAP1 PUSH2 0x1720 JUMP JUMPDEST PUSH2 0xB85 JUMP JUMPDEST PUSH1 0x40 MLOAD PUSH2 0x19C SWAP7 SWAP6 SWAP5 SWAP4 SWAP3 SWAP2 SWAP1 PUSH2 0x1789 JUMP JUMPDEST PUSH1 0x40 MLOAD DUP1 SWAP2 SUB SWAP1 RETURN JUMPDEST PUSH2 0x1BF PUSH1 0x4 DUP1 CALLDATASIZE SUB DUP2 ADD SWAP1 PUSH2 0x1BA SWAP2 SWAP1 PUSH2 0x17FD JUMP JUMPDEST PUSH2 0xD80 JUMP JUMPDEST STOP JUMPDEST PUSH1 0x60 PUSH0 DUP4 DUP4 PUSH1 0x40 MLOAD PUSH2 0x1D4 SWAP3 SWAP2 SWAP1 PUSH2 0x1888 JUMP JUMPDEST SWAP1 DUP2 MSTORE PUSH1 0x20 ADD PUSH1 0x40 MLOAD DUP1 SWAP2 SUB SWAP1 KECCAK256 DUP1 SLOAD DUP1 PUSH1 0x20 MUL PUSH1 0x20 ADD PUSH1 0x40 MLOAD SWAP1 DUP2 ADD PUSH1 0x40 MSTORE DUP1 SWAP3 SWAP2 SWAP1 DUP2 DUP2 MSTORE PUSH1 0x20 ADD PUSH0 SWAP1 JUMPDEST DUP3 DUP3 LT ISZERO PUSH2 0x3FE JUMPI DUP4 DUP3 SWAP1 PUSH0 MSTORE PUSH1 0x20 PUSH0 KECCAK256 SWAP1 PUSH1 0x6 MUL ADD PUSH1 0x40 MLOAD DUP1 PUSH1 0xC0 ADD PUSH1 0x40 MSTORE SWAP1 DUP2 PUSH0 DUP3 ADD DUP1 SLOAD PUSH2 0x231 SWAP1 PUSH2 0x18CD JUMP JUMPDEST DUP1 PUSH1 0x1F ADD PUSH1 0x20 DUP1 SWAP2 DIV MUL PUSH1 0x20 ADD PUSH1 0x40 MLOAD SWAP1 DUP2 ADD PUSH1 0x40 MSTORE DUP1 SWAP3 SWAP2 SWAP1 DUP2 DUP2 MSTORE PUSH1 0x20 ADD DUP3 DUP1 SLOAD PUSH2 0x25D SWAP1 PUSH2 0x18CD JUMP JUMPDEST DUP1 ISZERO PUSH2 0x2A8 JUMPI DUP1 PUSH1 0x1F LT PUSH2 0x27F JUMPI PUSH2 0x100 DUP1 DUP4 SLOAD DIV MUL DUP4 MSTORE SWAP2 PUSH1 0x20 ADD SWAP2 PUSH2 0x2A8 JUMP JUMPDEST DUP3 ADD SWAP2 SWAP1 PUSH0 MSTORE PUSH1 0x20 PUSH0 KECCAK256 SWAP1 JUMPDEST DUP2 SLOAD DUP2 MSTORE SWAP1 PUSH1 0x1 ADD SWAP1 PUSH1 0x20 ADD DUP1 DUP4 GT PUSH2 0x28B JUMPI DUP3 SWAP1 SUB PUSH1 0x1F AND DUP3 ADD SWAP2 JUMPDEST POP POP POP POP POP DUP2 MSTORE PUSH1 0x20 ADD PUSH1 0x1 DUP3 ADD DUP1 SLOAD PUSH2 0x2C1 SWAP1 PUSH2 0x18CD JUMP JUMPDEST DUP1 PUSH1 0x1F ADD PUSH1 0x20 DUP1 SWAP2 DIV MUL PUSH1 0x20 ADD PUSH1 0x40 MLOAD SWAP1 DUP2 ADD PUSH1 0x40 MSTORE DUP1 SWAP3 SWAP2 SWAP1 DUP2 DUP2 MSTORE PUSH1 0x20 ADD DUP3 DUP1 SLOAD PUSH2 0x2ED SWAP1 PUSH2 0x18CD JUMP JUMPDEST DUP1 ISZERO PUSH2 0x338 JUMPI DUP1 PUSH1 0x1F LT PUSH2 0x30F JUMPI PUSH2 0x100 DUP1 DUP4 SLOAD DIV MUL DUP4 MSTORE SWAP2 PUSH1 0x20 ADD SWAP2 PUSH2 0x338 JUMP JUMPDEST DUP3 ADD SWAP2 SWAP1 PUSH0 MSTORE PUSH1 0x20 PUSH0 KECCAK256 SWAP1 JUMPDEST DUP2 SLOAD DUP2 MSTORE SWAP1 PUSH1 0x1 ADD SWAP1 PUSH1 0x20 ADD DUP1 DUP4 GT PUSH2 0x31B JUMPI DUP3 SWAP1 SUB PUSH1 0x1F AND DUP3 ADD SWAP2 JUMPDEST POP POP POP POP POP DUP2 MSTORE PUSH1 0x20 ADD PUSH1 0x2 DUP3 ADD SLOAD DUP2 MSTORE PUSH1 0x20 ADD PUSH1 0x3 DUP3 ADD SLOAD DUP2 MSTORE PUSH1 0x20 ADD PUSH1 0x4 DUP3 ADD SLOAD DUP2 MSTORE PUSH1 0x20 ADD PUSH1 0x5 DUP3 ADD DUP1 SLOAD PUSH2 0x36F SWAP1 PUSH2 0x18CD JUMP JUMPDEST DUP1 PUSH1 0x1F ADD PUSH1 0x20 DUP1 SWAP2 DIV MUL PUSH1 0x20 ADD PUSH1 0x40 MLOAD SWAP1 DUP2 ADD PUSH1 0x40 MSTORE DUP1 SWAP3 SWAP2 SWAP1 DUP2 DUP2 MSTORE PUSH1 0x20 ADD DUP3 DUP1 SLOAD PUSH2 0x39B SWAP1 PUSH2 0x18CD JUMP JUMPDEST DUP1 ISZERO PUSH2 0x3E6 JUMPI DUP1 PUSH1 0x1F LT PUSH2 0x3BD JUMPI PUSH2 0x100 DUP1 DUP4 SLOAD DIV MUL DUP4 MSTORE SWAP2 PUSH1 0x20 ADD SWAP2 PUSH2 0x3E6 JUMP JUMPDEST DUP3 ADD SWAP2 SWAP1 PUSH0 MSTORE PUSH1 0x20 PUSH0 KECCAK256 SWAP1 JUMPDEST DUP2 SLOAD DUP2 MSTORE SWAP1 PUSH1 0x1 ADD SWAP1 PUSH1 0x20 ADD DUP1 DUP4 GT PUSH2 0x3C9 JUMPI DUP3 SWAP1 SUB PUSH1 0x1F AND DUP3 ADD SWAP2 JUMPDEST POP POP POP POP POP DUP2 MSTORE POP POP DUP2 MSTORE PUSH1 0x20 ADD SWAP1 PUSH1 0x1 ADD SWAP1 PUSH2 0x201 JUMP JUMPDEST POP POP POP POP SWAP1 POP SWAP3 SWAP2 POP POP JUMP JUMPDEST PUSH1 0x2 DUP2 DUP2 SLOAD DUP2 LT PUSH2 0x419 JUMPI PUSH0 DUP1 REVERT JUMPDEST SWAP1 PUSH0 MSTORE PUSH1 0x20 PUSH0 KECCAK256 ADD PUSH0 SWAP2 POP SLOAD SWAP1 PUSH2 0x100 EXP SWAP1 DIV PUSH20 0xFFFFFFFFFFFFFFFFFFFFFFFFFFFFFFFFFFFFFFFF AND DUP2 JUMP JUMPDEST PUSH0 DUP1 JUMPDEST PUSH1 0x2 DUP1 SLOAD SWAP1 POP DUP2 LT ISZERO PUSH2 0x4D9 JUMPI CALLER PUSH20 0xFFFFFFFFFFFFFFFFFFFFFFFFFFFFFFFFFFFFFFFF AND PUSH1 0x2 DUP3 DUP2 SLOAD DUP2 LT PUSH2 0x480 JUMPI PUSH2 0x47F PUSH2 0x18FD JUMP JUMPDEST JUMPDEST SWAP1 PUSH0 MSTORE PUSH1 0x20 PUSH0 KECCAK256 ADD PUSH0 SWAP1 SLOAD SWAP1 PUSH2 0x100 EXP SWAP1 DIV PUSH20 0xFFFFFFFFFFFFFFFFFFFFFFFFFFFFFFFFFFFFFFFF AND PUSH20 0xFFFFFFFFFFFFFFFFFFFFFFFFFFFFFFFFFFFFFFFF AND SUB PUSH2 0x4CC JUMPI PUSH1 0x1 SWAP2 POP PUSH2 0x4D9 JUMP JUMPDEST DUP1 DUP1 PUSH1 0x1 ADD SWAP2 POP POP PUSH2 0x448 JUMP JUMPDEST POP DUP1 PUSH2 0x51A JUMPI PUSH1 0x40 MLOAD PUSH32 0x8C379A000000000000000000000000000000000000000000000000000000000 DUP2 MSTORE PUSH1 0x4 ADD PUSH2 0x511 SWAP1 PUSH2 0x199A JUMP JUMPDEST PUSH1 0x40 MLOAD DUP1 SWAP2 SUB SWAP1 REVERT JUMPDEST PUSH0 DUP1 JUMPDEST PUSH1 0x1 DUP1 SLOAD SWAP1 POP DUP2 LT ISZERO PUSH2 0x82F JUMPI PUSH0 JUMPDEST PUSH0 PUSH1 0x1 DUP4 DUP2 SLOAD DUP2 LT PUSH2 0x541 JUMPI PUSH2 0x540 PUSH2 0x18FD JUMP JUMPDEST JUMPDEST SWAP1 PUSH0 MSTORE PUSH1 0x20 PUSH0 KECCAK256 ADD PUSH1 0x40 MLOAD PUSH2 0x556 SWAP2 SWAP1 PUSH2 0x1A4A JUMP JUMPDEST SWAP1 DUP2 MSTORE PUSH1 0x20 ADD PUSH1 0x40 MLOAD DUP1 SWAP2 SUB SWAP1 KECCAK256 DUP1 SLOAD SWAP1 POP DUP2 LT ISZERO PUSH2 0x81C JUMPI DUP5 PUSH1 0x80 ADD CALLDATALOAD PUSH0 PUSH1 0x1 DUP5 DUP2 SLOAD DUP2 LT PUSH2 0x589 JUMPI PUSH2 0x588 PUSH2 0x18FD JUMP JUMPDEST JUMPDEST SWAP1 PUSH0 MSTORE PUSH1 0x20 PUSH0 KECCAK256 ADD PUSH1 0x40 MLOAD PUSH2 0x59E SWAP2 SWAP1 PUSH2 0x1A4A JUMP JUMPDEST SWAP1 DUP2 MSTORE PUSH1 0x20 ADD PUSH1 0x40 MLOAD DUP1 SWAP2 SUB SWAP1 KECCAK256 DUP3 DUP2 SLOAD DUP2 LT PUSH2 0x5BE JUMPI PUSH2 0x5BD PUSH2 0x18FD JUMP JUMPDEST JUMPDEST SWAP1 PUSH0 MSTORE PUSH1 0x20 PUSH0 KECCAK256 SWAP1 PUSH1 0x6 MUL ADD PUSH1 0x4 ADD SLOAD SUB PUSH2 0x80F JUMPI PUSH1 0x1 DUP3 DUP2 SLOAD DUP2 LT PUSH2 0x5E7 JUMPI PUSH2 0x5E6 PUSH2 0x18FD JUMP JUMPDEST JUMPDEST SWAP1 PUSH0 MSTORE PUSH1 0x20 PUSH0 KECCAK256 ADD PUSH0 PUSH1 0x1 DUP5 DUP2 SLOAD DUP2 LT PUSH2 0x604 JUMPI PUSH2 0x603 PUSH2 0x18FD JUMP JUMPDEST JUMPDEST SWAP1 PUSH0 MSTORE PUSH1 0x20 PUSH0 KECCAK256 ADD PUSH1 0x40 MLOAD PUSH2 0x619 SWAP2 SWAP1 PUSH2 0x1A4A JUMP JUMPDEST SWAP1 DUP2 MSTORE PUSH1 0x20 ADD PUSH1 0x40 MLOAD DUP1 SWAP2 SUB SWAP1 KECCAK256 DUP3 DUP2 SLOAD DUP2 LT PUSH2 0x639 JUMPI PUSH2 0x638 PUSH2 0x18FD JUMP JUMPDEST JUMPDEST SWAP1 PUSH0 MSTORE PUSH1 0x20 PUSH0 KECCAK256 SWAP1 PUSH1 0x6 MUL ADD PUSH0 ADD SWAP1 DUP2 PUSH2 0x653 SWAP2 SWAP1 PUSH2 0x1C12 JUMP JUMPDEST POP DUP5 DUP1 PUSH1 0x20 ADD SWAP1 PUSH2 0x664 SWAP2 SWAP1 PUSH2 0x1D03 JUMP JUMPDEST PUSH0 PUSH1 0x1 DUP6 DUP2 SLOAD DUP2 LT PUSH2 0x679 JUMPI PUSH2 0x678 PUSH2 0x18FD JUMP JUMPDEST JUMPDEST SWAP1 PUSH0 MSTORE PUSH1 0x20 PUSH0 KECCAK256 ADD PUSH1 0x40 MLOAD PUSH2 0x68E SWAP2 SWAP1 PUSH2 0x1A4A JUMP JUMPDEST SWAP1 DUP2 MSTORE PUSH1 0x20 ADD PUSH1 0x40 MLOAD DUP1 SWAP2 SUB SWAP1 KECCAK256 DUP4 DUP2 SLOAD DUP2 LT PUSH2 0x6AE JUMPI PUSH2 0x6AD PUSH2 0x18FD JUMP JUMPDEST JUMPDEST SWAP1 PUSH0 MSTORE PUSH1 0x20 PUSH0 KECCAK256 SWAP1 PUSH1 0x6 MUL ADD PUSH1 0x1 ADD SWAP2 DUP3 PUSH2 0x6CA SWAP3 SWAP2 SWAP1 PUSH2 0x1D6F JUMP JUMPDEST POP DUP5 PUSH1 0x40 ADD CALLDATALOAD PUSH0 PUSH1 0x1 DUP5 DUP2 SLOAD DUP2 LT PUSH2 0x6E5 JUMPI PUSH2 0x6E4 PUSH2 0x18FD JUMP JUMPDEST JUMPDEST SWAP1 PUSH0 MSTORE PUSH1 0x20 PUSH0 KECCAK256 ADD PUSH1 0x40 MLOAD PUSH2 0x6FA SWAP2 SWAP1 PUSH2 0x1A4A JUMP JUMPDEST SWAP1 DUP2 MSTORE PUSH1 0x20 ADD PUSH1 0x40 MLOAD DUP1 SWAP2 SUB SWAP1 KECCAK256 DUP3 DUP2 SLOAD DUP2 LT PUSH2 0x71A JUMPI PUSH2 0x719 PUSH2 0x18FD JUMP JUMPDEST JUMPDEST SWAP1 PUSH0 MSTORE PUSH1 0x20 PUSH0 KECCAK256 SWAP1 PUSH1 0x6 MUL ADD PUSH1 0x2 ADD DUP2 SWAP1 SSTORE POP DUP5 PUSH1 0x60 ADD CALLDATALOAD PUSH0 PUSH1 0x1 DUP5 DUP2 SLOAD DUP2 LT PUSH2 0x747 JUMPI PUSH2 0x746 PUSH2 0x18FD JUMP JUMPDEST JUMPDEST SWAP1 PUSH0 MSTORE PUSH1 0x20 PUSH0 KECCAK256 ADD PUSH1 0x40 MLOAD PUSH2 0x75C SWAP2 SWAP1 PUSH2 0x1A4A JUMP JUMPDEST SWAP1 DUP2 MSTORE PUSH1 0x20 ADD PUSH1 0x40 MLOAD DUP1 SWAP2 SUB SWAP1 KECCAK256 DUP3 DUP2 SLOAD DUP2 LT PUSH2 0x77C JUMPI PUSH2 0x77B PUSH2 0x18FD JUMP JUMPDEST JUMPDEST SWAP1 PUSH0 MSTORE PUSH1 0x20 PUSH0 KECCAK256 SWAP1 PUSH1 0x6 MUL ADD PUSH1 0x3 ADD DUP2 SWAP1 SSTORE POP DUP5 DUP1 PUSH1 0xA0 ADD SWAP1 PUSH2 0x79F SWAP2 SWAP1 PUSH2 0x1D03 JUMP JUMPDEST PUSH0 PUSH1 0x1 DUP6 DUP2 SLOAD DUP2 LT PUSH2 0x7B4 JUMPI PUSH2 0x7B3 PUSH2 0x18FD JUMP JUMPDEST JUMPDEST SWAP1 PUSH0 MSTORE PUSH1 0x20 PUSH0 KECCAK256 ADD PUSH1 0x40 MLOAD PUSH2 0x7C9 SWAP2 SWAP1 PUSH2 0x1A4A JUMP JUMPDEST SWAP1 DUP2 MSTORE PUSH1 0x20 ADD PUSH1 0x40 MLOAD DUP1 SWAP2 SUB SWAP1 KECCAK256 DUP4 DUP2 SLOAD DUP2 LT PUSH2 0x7E9 JUMPI PUSH2 0x7E8 PUSH2 0x18FD JUMP JUMPDEST JUMPDEST SWAP1 PUSH0 MSTORE PUSH1 0x20 PUSH0 KECCAK256 SWAP1 PUSH1 0x6 MUL ADD PUSH1 0x5 ADD SWAP2 DUP3 PUSH2 0x805 SWAP3 SWAP2 SWAP1 PUSH2 0x1D6F JUMP JUMPDEST POP PUSH1 0x1 SWAP3 POP PUSH2 0x81C JUMP JUMPDEST DUP1 DUP1 PUSH1 0x1 ADD SWAP2 POP POP PUSH2 0x52C JUMP JUMPDEST POP DUP2 PUSH2 0x82F JUMPI DUP1 DUP1 PUSH1 0x1 ADD SWAP2 POP POP PUSH2 0x51D JUMP JUMPDEST POP DUP1 PUSH2 0x916 JUMPI PUSH0 DUP1 DUP5 DUP1 PUSH0 ADD SWAP1 PUSH2 0x846 SWAP2 SWAP1 PUSH2 0x1D03 JUMP JUMPDEST PUSH1 0x40 MLOAD PUSH2 0x854 SWAP3 SWAP2 SWAP1 PUSH2 0x1888 JUMP JUMPDEST SWAP1 DUP2 MSTORE PUSH1 0x20 ADD PUSH1 0x40 MLOAD DUP1 SWAP2 SUB SWAP1 KECCAK256 DUP1 SLOAD SWAP1 POP SUB PUSH2 0x8B4 JUMPI PUSH1 0x1 DUP4 DUP1 PUSH0 ADD SWAP1 PUSH2 0x87C SWAP2 SWAP1 PUSH2 0x1D03 JUMP JUMPDEST SWAP1 SWAP2 DUP1 PUSH1 0x1 DUP2 SLOAD ADD DUP1 DUP3 SSTORE DUP1 SWAP2 POP POP PUSH1 0x1 SWAP1 SUB SWAP1 PUSH0 MSTORE PUSH1 0x20 PUSH0 KECCAK256 ADD PUSH0 SWAP1 SWAP2 SWAP3 SWAP1 SWAP2 SWAP3 SWAP1 SWAP2 SWAP3 SWAP1 SWAP2 SWAP3 POP SWAP2 DUP3 PUSH2 0x8B2 SWAP3 SWAP2 SWAP1 PUSH2 0x1D6F JUMP JUMPDEST POP JUMPDEST PUSH0 DUP4 DUP1 PUSH0 ADD SWAP1 PUSH2 0x8C4 SWAP2 SWAP1 PUSH2 0x1D03 JUMP JUMPDEST PUSH1 0x40 MLOAD PUSH2 0x8D2 SWAP3 SWAP2 SWAP1 PUSH2 0x1888 JUMP JUMPDEST SWAP1 DUP2 MSTORE PUSH1 0x20 ADD PUSH1 0x40 MLOAD DUP1 SWAP2 SUB SWAP1 KECCAK256 DUP4 SWAP1 DUP1 PUSH1 0x1 DUP2 SLOAD ADD DUP1 DUP3 SSTORE DUP1 SWAP2 POP POP PUSH1 0x1 SWAP1 SUB SWAP1 PUSH0 MSTORE PUSH1 0x20 PUSH0 KECCAK256 SWAP1 PUSH1 0x6 MUL ADD PUSH0 SWAP1 SWAP2 SWAP1 SWAP2 SWAP1 SWAP2 POP DUP2 DUP2 PUSH2 0x913 SWAP2 SWAP1 PUSH2 0x1F98 JUMP JUMPDEST POP POP JUMPDEST POP POP POP JUMP JUMPDEST PUSH1 0x60 PUSH1 0x2 DUP1 SLOAD DUP1 PUSH1 0x20 MUL PUSH1 0x20 ADD PUSH1 0x40 MLOAD SWAP1 DUP2 ADD PUSH1 0x40 MSTORE DUP1 SWAP3 SWAP2 SWAP1 DUP2 DUP2 MSTORE PUSH1 0x20 ADD DUP3 DUP1 SLOAD DUP1 ISZERO PUSH2 0x99C JUMPI PUSH1 0x20 MUL DUP3 ADD SWAP2 SWAP1 PUSH0 MSTORE PUSH1 0x20 PUSH0 KECCAK256 SWAP1 JUMPDEST DUP2 PUSH0 SWAP1 SLOAD SWAP1 PUSH2 0x100 EXP SWAP1 DIV PUSH20 0xFFFFFFFFFFFFFFFFFFFFFFFFFFFFFFFFFFFFFFFF AND PUSH20 0xFFFFFFFFFFFFFFFFFFFFFFFFFFFFFFFFFFFFFFFF AND DUP2 MSTORE PUSH1 0x20 ADD SWAP1 PUSH1 0x1 ADD SWAP1 DUP1 DUP4 GT PUSH2 0x953 JUMPI JUMPDEST POP POP POP POP POP SWAP1 POP SWAP1 JUMP JUMPDEST PUSH1 0x1 DUP2 DUP2 SLOAD DUP2 LT PUSH2 0x9B5 JUMPI PUSH0 DUP1 REVERT JUMPDEST SWAP1 PUSH0 MSTORE PUSH1 0x20 PUSH0 KECCAK256 ADD PUSH0 SWAP2 POP SWAP1 POP DUP1 SLOAD PUSH2 0x9CD SWAP1 PUSH2 0x18CD JUMP JUMPDEST DUP1 PUSH1 0x1F ADD PUSH1 0x20 DUP1 SWAP2 DIV MUL PUSH1 0x20 ADD PUSH1 0x40 MLOAD SWAP1 DUP2 ADD PUSH1 0x40 MSTORE DUP1 SWAP3 SWAP2 SWAP1 DUP2 DUP2 MSTORE PUSH1 0x20 ADD DUP3 DUP1 SLOAD PUSH2 0x9F9 SWAP1 PUSH2 0x18CD JUMP JUMPDEST DUP1 ISZERO PUSH2 0xA44 JUMPI DUP1 PUSH1 0x1F LT PUSH2 0xA1B JUMPI PUSH2 0x100 DUP1 DUP4 SLOAD DIV MUL DUP4 MSTORE SWAP2 PUSH1 0x20 ADD SWAP2 PUSH2 0xA44 JUMP JUMPDEST DUP3 ADD SWAP2 SWAP1 PUSH0 MSTORE PUSH1 0x20 PUSH0 KECCAK256 SWAP1 JUMPDEST DUP2 SLOAD DUP2 MSTORE SWAP1 PUSH1 0x1 ADD SWAP1 PUSH1 0x20 ADD DUP1 DUP4 GT PUSH2 0xA27 JUMPI DUP3 SWAP1 SUB PUSH1 0x1F AND DUP3 ADD SWAP2 JUMPDEST POP POP POP POP POP DUP2 JUMP JUMPDEST PUSH0 DUP1 JUMPDEST PUSH1 0x2 DUP1 SLOAD SWAP1 POP DUP2 LT ISZERO PUSH2 0xAE0 JUMPI CALLER PUSH20 0xFFFFFFFFFFFFFFFFFFFFFFFFFFFFFFFFFFFFFFFF AND PUSH1 0x2 DUP3 DUP2 SLOAD DUP2 LT PUSH2 0xA87 JUMPI PUSH2 0xA86 PUSH2 0x18FD JUMP JUMPDEST JUMPDEST SWAP1 PUSH0 MSTORE PUSH1 0x20 PUSH0 KECCAK256 ADD PUSH0 SWAP1 SLOAD SWAP1 PUSH2 0x100 EXP SWAP1 DIV PUSH20 0xFFFFFFFFFFFFFFFFFFFFFFFFFFFFFFFFFFFFFFFF AND PUSH20 0xFFFFFFFFFFFFFFFFFFFFFFFFFFFFFFFFFFFFFFFF AND SUB PUSH2 0xAD3 JUMPI PUSH1 0x1 SWAP2 POP PUSH2 0xAE0 JUMP JUMPDEST DUP1 DUP1 PUSH1 0x1 ADD SWAP2 POP POP PUSH2 0xA4F JUMP JUMPDEST POP DUP1 PUSH2 0xB21 JUMPI PUSH1 0x40 MLOAD PUSH32 0x8C379A000000000000000000000000000000000000000000000000000000000 DUP2 MSTORE PUSH1 0x4 ADD PUSH2 0xB18 SWAP1 PUSH2 0x199A JUMP JUMPDEST PUSH1 0x40 MLOAD DUP1 SWAP2 SUB SWAP1 REVERT JUMPDEST PUSH1 0x2 DUP3 SWAP1 DUP1 PUSH1 0x1 DUP2 SLOAD ADD DUP1 DUP3 SSTORE DUP1 SWAP2 POP POP PUSH1 0x1 SWAP1 SUB SWAP1 PUSH0 MSTORE PUSH1 0x20 PUSH0 KECCAK256 ADD PUSH0 SWAP1 SWAP2 SWAP1 SWAP2 SWAP1 SWAP2 PUSH2 0x100 EXP DUP2 SLOAD DUP2 PUSH20 0xFFFFFFFFFFFFFFFFFFFFFFFFFFFFFFFFFFFFFFFF MUL NOT AND SWAP1 DUP4 PUSH20 0xFFFFFFFFFFFFFFFFFFFFFFFFFFFFFFFFFFFFFFFF AND MUL OR SWAP1 SSTORE POP POP POP JUMP JUMPDEST PUSH0 DUP3 DUP1 MLOAD PUSH1 0x20 DUP2 ADD DUP3 ADD DUP1 MLOAD DUP5 DUP3 MSTORE PUSH1 0x20 DUP4 ADD PUSH1 0x20 DUP6 ADD KECCAK256 DUP2 DUP4 MSTORE DUP1 SWAP6 POP POP POP POP POP POP DUP2 DUP2 SLOAD DUP2 LT PUSH2 0xBB5 JUMPI PUSH0 DUP1 REVERT JUMPDEST SWAP1 PUSH0 MSTORE PUSH1 0x20 PUSH0 KECCAK256 SWAP1 PUSH1 0x6 MUL ADD PUSH0 SWAP2 POP SWAP2 POP POP DUP1 PUSH0 ADD DUP1 SLOAD PUSH2 0xBD5 SWAP1 PUSH2 0x18CD JUMP JUMPDEST DUP1 PUSH1 0x1F ADD PUSH1 0x20 DUP1 SWAP2 DIV MUL PUSH1 0x20 ADD PUSH1 0x40 MLOAD SWAP1 DUP2 ADD PUSH1 0x40 MSTORE DUP1 SWAP3 SWAP2 SWAP1 DUP2 DUP2 MSTORE PUSH1 0x20 ADD DUP3 DUP1 SLOAD PUSH2 0xC01 SWAP1 PUSH2 0x18CD JUMP JUMPDEST DUP1 ISZERO PUSH2 0xC4C JUMPI DUP1 PUSH1 0x1F LT PUSH2 0xC23 JUMPI PUSH2 0x100 DUP1 DUP4 SLOAD DIV MUL DUP4 MSTORE SWAP2 PUSH1 0x20 ADD SWAP2 PUSH2 0xC4C JUMP JUMPDEST DUP3 ADD SWAP2 SWAP1 PUSH0 MSTORE PUSH1 0x20 PUSH0 KECCAK256 SWAP1 JUMPDEST DUP2 SLOAD DUP2 MSTORE SWAP1 PUSH1 0x1 ADD SWAP1 PUSH1 0x20 ADD DUP1 DUP4 GT PUSH2 0xC2F JUMPI DUP3 SWAP1 SUB PUSH1 0x1F AND DUP3 ADD SWAP2 JUMPDEST POP POP POP POP POP SWAP1 DUP1 PUSH1 0x1 ADD DUP1 SLOAD PUSH2 0xC61 SWAP1 PUSH2 0x18CD JUMP JUMPDEST DUP1 PUSH1 0x1F ADD PUSH1 0x20 DUP1 SWAP2 DIV MUL PUSH1 0x20 ADD PUSH1 0x40 MLOAD SWAP1 DUP2 ADD PUSH1 0x40 MSTORE DUP1 SWAP3 SWAP2 SWAP1 DUP2 DUP2 MSTORE PUSH1 0x20 ADD DUP3 DUP1 SLOAD PUSH2 0xC8D SWAP1 PUSH2 0x18CD JUMP JUMPDEST DUP1 ISZERO PUSH2 0xCD8 JUMPI DUP1 PUSH1 0x1F LT PUSH2 0xCAF JUMPI PUSH2 0x100 DUP1 DUP4 SLOAD DIV MUL DUP4 MSTORE SWAP2 PUSH1 0x20 ADD SWAP2 PUSH2 0xCD8 JUMP JUMPDEST DUP3 ADD SWAP2 SWAP1 PUSH0 MSTORE PUSH1 0x20 PUSH0 KECCAK256 SWAP1 JUMPDEST DUP2 SLOAD DUP2 MSTORE SWAP1 PUSH1 0x1 ADD SWAP1 PUSH1 0x20 ADD DUP1 DUP4 GT PUSH2 0xCBB JUMPI DUP3 SWAP1 SUB PUSH1 0x1F AND DUP3 ADD SWAP2 JUMPDEST POP POP POP POP POP SWAP1 DUP1 PUSH1 0x2 ADD SLOAD SWAP1 DUP1 PUSH1 0x3 ADD SLOAD SWAP1 DUP1 PUSH1 0x4 ADD SLOAD SWAP1 DUP1 PUSH1 0x5 ADD DUP1 SLOAD PUSH2 0xCFF SWAP1 PUSH2 0x18CD JUMP JUMPDEST DUP1 PUSH1 0x1F ADD PUSH1 0x20 DUP1 SWAP2 DIV MUL PUSH1 0x20 ADD PUSH1 0x40 MLOAD SWAP1 DUP2 ADD PUSH1 0x40 MSTORE DUP1 SWAP3 SWAP2 SWAP1 DUP2 DUP2 MSTORE PUSH1 0x20 ADD DUP3 DUP1 SLOAD PUSH2 0xD2B SWAP1 PUSH2 0x18CD JUMP JUMPDEST DUP1 ISZERO PUSH2 0xD76 JUMPI DUP1 PUSH1 0x1F LT PUSH2 0xD4D JUMPI PUSH2 0x100 DUP1 DUP4 SLOAD DIV MUL DUP4 MSTORE SWAP2 PUSH1 0x20 ADD SWAP2 PUSH2 0xD76 JUMP JUMPDEST DUP3 ADD SWAP2 SWAP1 PUSH0 MSTORE PUSH1 0x20 PUSH0 KECCAK256 SWAP1 JUMPDEST DUP2 SLOAD DUP2 MSTORE SWAP1 PUSH1 0x1 ADD SWAP1 PUSH1 0x20 ADD DUP1 DUP4 GT PUSH2 0xD59 JUMPI DUP3 SWAP1 SUB PUSH1 0x1F AND DUP3 ADD SWAP2 JUMPDEST POP POP POP POP POP SWAP1 POP DUP7 JUMP JUMPDEST PUSH0 JUMPDEST PUSH0 DUP4 DUP4 PUSH1 0x40 MLOAD PUSH2 0xD93 SWAP3 SWAP2 SWAP1 PUSH2 0x1888 JUMP JUMPDEST SWAP1 DUP2 MSTORE PUSH1 0x20 ADD PUSH1 0x40 MLOAD DUP1 SWAP2 SUB SWAP1 KECCAK256 DUP1 SLOAD SWAP1 POP DUP2 LT ISZERO PUSH2 0x103B JUMPI DUP4 PUSH0 DUP5 DUP5 PUSH1 0x40 MLOAD PUSH2 0xDBE SWAP3 SWAP2 SWAP1 PUSH2 0x1888 JUMP JUMPDEST SWAP1 DUP2 MSTORE PUSH1 0x20 ADD PUSH1 0x40 MLOAD DUP1 SWAP2 SUB SWAP1 KECCAK256 DUP3 DUP2 SLOAD DUP2 LT PUSH2 0xDDE JUMPI PUSH2 0xDDD PUSH2 0x18FD JUMP JUMPDEST JUMPDEST SWAP1 PUSH0 MSTORE PUSH1 0x20 PUSH0 KECCAK256 SWAP1 PUSH1 0x6 MUL ADD PUSH1 0x4 ADD SLOAD SUB PUSH2 0x102E JUMPI PUSH0 DUP4 DUP4 PUSH1 0x40 MLOAD PUSH2 0xE04 SWAP3 SWAP2 SWAP1 PUSH2 0x1888 JUMP JUMPDEST SWAP1 DUP2 MSTORE PUSH1 0x20 ADD PUSH1 0x40 MLOAD DUP1 SWAP2 SUB SWAP1 KECCAK256 DUP2 DUP2 SLOAD DUP2 LT PUSH2 0xE24 JUMPI PUSH2 0xE23 PUSH2 0x18FD JUMP JUMPDEST JUMPDEST SWAP1 PUSH0 MSTORE PUSH1 0x20 PUSH0 KECCAK256 SWAP1 PUSH1 0x6 MUL ADD PUSH0 DUP1 DUP3 ADD PUSH0 PUSH2 0xE3F SWAP2 SWAP1 PUSH2 0x1042 JUMP JUMPDEST PUSH1 0x1 DUP3 ADD PUSH0 PUSH2 0xE4E SWAP2 SWAP1 PUSH2 0x1042 JUMP JUMPDEST PUSH1 0x2 DUP3 ADD PUSH0 SWAP1 SSTORE PUSH1 0x3 DUP3 ADD PUSH0 SWAP1 SSTORE PUSH1 0x4 DUP3 ADD PUSH0 SWAP1 SSTORE PUSH1 0x5 DUP3 ADD PUSH0 PUSH2 0xE72 SWAP2 SWAP1 PUSH2 0x1042 JUMP JUMPDEST POP POP PUSH0 DUP2 SWAP1 POP JUMPDEST PUSH1 0x1 PUSH0 DUP6 DUP6 PUSH1 0x40 MLOAD PUSH2 0xE8C SWAP3 SWAP2 SWAP1 PUSH2 0x1888 JUMP JUMPDEST SWAP1 DUP2 MSTORE PUSH1 0x20 ADD PUSH1 0x40 MLOAD DUP1 SWAP2 SUB SWAP1 KECCAK256 DUP1 SLOAD SWAP1 POP PUSH2 0xEA8 SWAP2 SWAP1 PUSH2 0x1FD3 JUMP JUMPDEST DUP2 LT ISZERO PUSH2 0xFA0 JUMPI PUSH0 DUP5 DUP5 PUSH1 0x40 MLOAD PUSH2 0xEC0 SWAP3 SWAP2 SWAP1 PUSH2 0x1888 JUMP JUMPDEST SWAP1 DUP2 MSTORE PUSH1 0x20 ADD PUSH1 0x40 MLOAD DUP1 SWAP2 SUB SWAP1 KECCAK256 PUSH1 0x1 DUP3 PUSH2 0xEDB SWAP2 SWAP1 PUSH2 0x2006 JUMP JUMPDEST DUP2 SLOAD DUP2 LT PUSH2 0xEEC JUMPI PUSH2 0xEEB PUSH2 0x18FD JUMP JUMPDEST JUMPDEST SWAP1 PUSH0 MSTORE PUSH1 0x20 PUSH0 KECCAK256 SWAP1 PUSH1 0x6 MUL ADD PUSH0 DUP6 DUP6 PUSH1 0x40 MLOAD PUSH2 0xF09 SWAP3 SWAP2 SWAP1 PUSH2 0x1888 JUMP JUMPDEST SWAP1 DUP2 MSTORE PUSH1 0x20 ADD PUSH1 0x40 MLOAD DUP1 SWAP2 SUB SWAP1 KECCAK256 DUP3 DUP2 SLOAD DUP2 LT PUSH2 0xF29 JUMPI PUSH2 0xF28 PUSH2 0x18FD JUMP JUMPDEST JUMPDEST SWAP1 PUSH0 MSTORE PUSH1 0x20 PUSH0 KECCAK256 SWAP1 PUSH1 0x6 MUL ADD PUSH0 DUP3 ADD DUP2 PUSH0 ADD SWAP1 DUP2 PUSH2 0xF47 SWAP2 SWAP1 PUSH2 0x204E JUMP JUMPDEST POP PUSH1 0x1 DUP3 ADD DUP2 PUSH1 0x1 ADD SWAP1 DUP2 PUSH2 0xF5C SWAP2 SWAP1 PUSH2 0x204E JUMP JUMPDEST POP PUSH1 0x2 DUP3 ADD SLOAD DUP2 PUSH1 0x2 ADD SSTORE PUSH1 0x3 DUP3 ADD SLOAD DUP2 PUSH1 0x3 ADD SSTORE PUSH1 0x4 DUP3 ADD SLOAD DUP2 PUSH1 0x4 ADD SSTORE PUSH1 0x5 DUP3 ADD DUP2 PUSH1 0x5 ADD SWAP1 DUP2 PUSH2 0xF8F SWAP2 SWAP1 PUSH2 0x204E JUMP JUMPDEST POP SWAP1 POP POP DUP1 DUP1 PUSH1 0x1 ADD SWAP2 POP POP PUSH2 0xE79 JUMP JUMPDEST POP PUSH0 DUP4 DUP4 PUSH1 0x40 MLOAD PUSH2 0xFB2 SWAP3 SWAP2 SWAP1 PUSH2 0x1888 JUMP JUMPDEST SWAP1 DUP2 MSTORE PUSH1 0x20 ADD PUSH1 0x40 MLOAD DUP1 SWAP2 SUB SWAP1 KECCAK256 DUP1 SLOAD DUP1 PUSH2 0xFD0 JUMPI PUSH2 0xFCF PUSH2 0x2133 JUMP JUMPDEST JUMPDEST PUSH1 0x1 SWAP1 SUB DUP2 DUP2 SWAP1 PUSH0 MSTORE PUSH1 0x20 PUSH0 KECCAK256 SWAP1 PUSH1 0x6 MUL ADD PUSH0 DUP1 DUP3 ADD PUSH0 PUSH2 0xFF1 SWAP2 SWAP1 PUSH2 0x1042 JUMP JUMPDEST PUSH1 0x1 DUP3 ADD PUSH0 PUSH2 0x1000 SWAP2 SWAP1 PUSH2 0x1042 JUMP JUMPDEST PUSH1 0x2 DUP3 ADD PUSH0 SWAP1 SSTORE PUSH1 0x3 DUP3 ADD PUSH0 SWAP1 SSTORE PUSH1 0x4 DUP3 ADD PUSH0 SWAP1 SSTORE PUSH1 0x5 DUP3 ADD PUSH0 PUSH2 0x1024 SWAP2 SWAP1 PUSH2 0x1042 JUMP JUMPDEST POP POP SWAP1 SSTORE POP PUSH2 0x103D JUMP JUMPDEST DUP1 DUP1 PUSH1 0x1 ADD SWAP2 POP POP PUSH2 0xD82 JUMP JUMPDEST POP JUMPDEST POP POP POP JUMP JUMPDEST POP DUP1 SLOAD PUSH2 0x104E SWAP1 PUSH2 0x18CD JUMP JUMPDEST PUSH0 DUP3 SSTORE DUP1 PUSH1 0x1F LT PUSH2 0x105F JUMPI POP PUSH2 0x107C JUMP JUMPDEST PUSH1 0x1F ADD PUSH1 0x20 SWAP1 DIV SWAP1 PUSH0 MSTORE PUSH1 0x20 PUSH0 KECCAK256 SWAP1 DUP2 ADD SWAP1 PUSH2 0x107B SWAP2 SWAP1 PUSH2 0x107F JUMP JUMPDEST JUMPDEST POP JUMP JUMPDEST JUMPDEST DUP1 DUP3 GT ISZERO PUSH2 0x1096 JUMPI PUSH0 DUP2 PUSH0 SWAP1 SSTORE POP PUSH1 0x1 ADD PUSH2 0x1080 JUMP JUMPDEST POP SWAP1 JUMP JUMPDEST PUSH0 PUSH1 0x40 MLOAD SWAP1 POP SWAP1 JUMP JUMPDEST PUSH0 DUP1 REVERT JUMPDEST PUSH0 DUP1 REVERT JUMPDEST PUSH0 DUP1 REVERT JUMPDEST PUSH0 DUP1 REVERT JUMPDEST PUSH0 DUP1 REVERT JUMPDEST PUSH0 DUP1 DUP4 PUSH1 0x1F DUP5 ADD SLT PUSH2 0x10CC JUMPI PUSH2 0x10CB PUSH2 0x10AB JUMP JUMPDEST JUMPDEST DUP3 CALLDATALOAD SWAP1 POP PUSH8 0xFFFFFFFFFFFFFFFF DUP2 GT ISZERO PUSH2 0x10E9 JUMPI PUSH2 0x10E8 PUSH2 0x10AF JUMP JUMPDEST JUMPDEST PUSH1 0x20 DUP4 ADD SWAP2 POP DUP4 PUSH1 0x1 DUP3 MUL DUP4 ADD GT ISZERO PUSH2 0x1105 JUMPI PUSH2 0x1104 PUSH2 0x10B3 JUMP JUMPDEST JUMPDEST SWAP3 POP SWAP3 SWAP1 POP JUMP JUMPDEST PUSH0 DUP1 PUSH1 0x20 DUP4 DUP6 SUB SLT ISZERO PUSH2 0x1122 JUMPI PUSH2 0x1121 PUSH2 0x10A3 JUMP JUMPDEST JUMPDEST PUSH0 DUP4 ADD CALLDATALOAD PUSH8 0xFFFFFFFFFFFFFFFF DUP2 GT ISZERO PUSH2 0x113F JUMPI PUSH2 0x113E PUSH2 0x10A7 JUMP JUMPDEST JUMPDEST PUSH2 0x114B DUP6 DUP3 DUP7 ADD PUSH2 0x10B7 JUMP JUMPDEST SWAP3 POP SWAP3 POP POP SWAP3 POP SWAP3 SWAP1 POP JUMP JUMPDEST PUSH0 DUP2 MLOAD SWAP1 POP SWAP2 SWAP1 POP JUMP JUMPDEST PUSH0 DUP3 DUP3 MSTORE PUSH1 0x20 DUP3 ADD SWAP1 POP SWAP3 SWAP2 POP POP JUMP JUMPDEST PUSH0 DUP2 SWAP1 POP PUSH1 0x20 DUP3 ADD SWAP1 POP SWAP2 SWAP1 POP JUMP JUMPDEST PUSH0 DUP2 MLOAD SWAP1 POP SWAP2 SWAP1 POP JUMP JUMPDEST PUSH0 DUP3 DUP3 MSTORE PUSH1 0x20 DUP3 ADD SWAP1 POP SWAP3 SWAP2 POP POP JUMP JUMPDEST DUP3 DUP2 DUP4 MCOPY PUSH0 DUP4 DUP4 ADD MSTORE POP POP POP JUMP JUMPDEST PUSH0 PUSH1 0x1F NOT PUSH1 0x1F DUP4 ADD AND SWAP1 POP SWAP2 SWAP1 POP JUMP JUMPDEST PUSH0 PUSH2 0x11C2 DUP3 PUSH2 0x1180 JUMP JUMPDEST PUSH2 0x11CC DUP2 DUP6 PUSH2 0x118A JUMP JUMPDEST SWAP4 POP PUSH2 0x11DC DUP2 DUP6 PUSH1 0x20 DUP7 ADD PUSH2 0x119A JUMP JUMPDEST PUSH2 0x11E5 DUP2 PUSH2 0x11A8 JUMP JUMPDEST DUP5 ADD SWAP2 POP POP SWAP3 SWAP2 POP POP JUMP JUMPDEST PUSH0 DUP2 SWAP1 POP SWAP2 SWAP1 POP JUMP JUMPDEST PUSH2 0x1202 DUP2 PUSH2 0x11F0 JUMP JUMPDEST DUP3 MSTORE POP POP JUMP JUMPDEST PUSH0 PUSH1 0xC0 DUP4 ADD PUSH0 DUP4 ADD MLOAD DUP5 DUP3 SUB PUSH0 DUP7 ADD MSTORE PUSH2 0x1222 DUP3 DUP3 PUSH2 0x11B8 JUMP JUMPDEST SWAP2 POP POP PUSH1 0x20 DUP4 ADD MLOAD DUP5 DUP3 SUB PUSH1 0x20 DUP7 ADD MSTORE PUSH2 0x123C DUP3 DUP3 PUSH2 0x11B8 JUMP JUMPDEST SWAP2 POP POP PUSH1 0x40 DUP4 ADD MLOAD PUSH2 0x1251 PUSH1 0x40 DUP7 ADD DUP3 PUSH2 0x11F9 JUMP JUMPDEST POP PUSH1 0x60 DUP4 ADD MLOAD PUSH2 0x1264 PUSH1 0x60 DUP7 ADD DUP3 PUSH2 0x11F9 JUMP JUMPDEST POP PUSH1 0x80 DUP4 ADD MLOAD PUSH2 0x1277 PUSH1 0x80 DUP7 ADD DUP3 PUSH2 0x11F9 JUMP JUMPDEST POP PUSH1 0xA0 DUP4 ADD MLOAD DUP5 DUP3 SUB PUSH1 0xA0 DUP7 ADD MSTORE PUSH2 0x128F DUP3 DUP3 PUSH2 0x11B8 JUMP JUMPDEST SWAP2 POP POP DUP1 SWAP2 POP POP SWAP3 SWAP2 POP POP JUMP JUMPDEST PUSH0 PUSH2 0x12A7 DUP4 DUP4 PUSH2 0x1208 JUMP JUMPDEST SWAP1 POP SWAP3 SWAP2 POP POP JUMP JUMPDEST PUSH0 PUSH1 0x20 DUP3 ADD SWAP1 POP SWAP2 SWAP1 POP JUMP JUMPDEST PUSH0 PUSH2 0x12C5 DUP3 PUSH2 0x1157 JUMP JUMPDEST PUSH2 0x12CF DUP2 DUP6 PUSH2 0x1161 JUMP JUMPDEST SWAP4 POP DUP4 PUSH1 0x20 DUP3 MUL DUP6 ADD PUSH2 0x12E1 DUP6 PUSH2 0x1171 JUMP JUMPDEST DUP1 PUSH0 JUMPDEST DUP6 DUP2 LT ISZERO PUSH2 0x131C JUMPI DUP5 DUP5 SUB DUP10 MSTORE DUP2 MLOAD PUSH2 0x12FD DUP6 DUP3 PUSH2 0x129C JUMP JUMPDEST SWAP5 POP PUSH2 0x1308 DUP4 PUSH2 0x12AF JUMP JUMPDEST SWAP3 POP PUSH1 0x20 DUP11 ADD SWAP10 POP POP PUSH1 0x1 DUP2 ADD SWAP1 POP PUSH2 0x12E4 JUMP JUMPDEST POP DUP3 SWAP8 POP DUP8 SWAP6 POP POP POP POP POP POP SWAP3 SWAP2 POP POP JUMP JUMPDEST PUSH0 PUSH1 0x20 DUP3 ADD SWAP1 POP DUP2 DUP2 SUB PUSH0 DUP4 ADD MSTORE PUSH2 0x1346 DUP2 DUP5 PUSH2 0x12BB JUMP JUMPDEST SWAP1 POP SWAP3 SWAP2 POP POP JUMP JUMPDEST PUSH2 0x1357 DUP2 PUSH2 0x11F0 JUMP JUMPDEST DUP2 EQ PUSH2 0x1361 JUMPI PUSH0 DUP1 REVERT JUMPDEST POP JUMP JUMPDEST PUSH0 DUP2 CALLDATALOAD SWAP1 POP PUSH2 0x1372 DUP2 PUSH2 0x134E JUMP JUMPDEST SWAP3 SWAP2 POP POP JUMP JUMPDEST PUSH0 PUSH1 0x20 DUP3 DUP5 SUB SLT ISZERO PUSH2 0x138D JUMPI PUSH2 0x138C PUSH2 0x10A3 JUMP JUMPDEST JUMPDEST PUSH0 PUSH2 0x139A DUP5 DUP3 DUP6 ADD PUSH2 0x1364 JUMP JUMPDEST SWAP2 POP POP SWAP3 SWAP2 POP POP JUMP JUMPDEST PUSH0 PUSH20 0xFFFFFFFFFFFFFFFFFFFFFFFFFFFFFFFFFFFFFFFF DUP3 AND SWAP1 POP SWAP2 SWAP1 POP JUMP JUMPDEST PUSH0 PUSH2 0x13CC DUP3 PUSH2 0x13A3 JUMP JUMPDEST SWAP1 POP SWAP2 SWAP1 POP JUMP JUMPDEST PUSH2 0x13DC DUP2 PUSH2 0x13C2 JUMP JUMPDEST DUP3 MSTORE POP POP JUMP JUMPDEST PUSH0 PUSH1 0x20 DUP3 ADD SWAP1 POP PUSH2 0x13F5 PUSH0 DUP4 ADD DUP5 PUSH2 0x13D3 JUMP JUMPDEST SWAP3 SWAP2 POP POP JUMP JUMPDEST PUSH0 DUP1 REVERT JUMPDEST PUSH0 PUSH1 0xC0 DUP3 DUP5 SUB SLT ISZERO PUSH2 0x1414 JUMPI PUSH2 0x1413 PUSH2 0x13FB JUMP JUMPDEST JUMPDEST DUP2 SWAP1 POP SWAP3 SWAP2 POP POP JUMP JUMPDEST PUSH0 PUSH1 0x20 DUP3 DUP5 SUB SLT ISZERO PUSH2 0x1432 JUMPI PUSH2 0x1431 PUSH2 0x10A3 JUMP JUMPDEST JUMPDEST PUSH0 DUP3 ADD CALLDATALOAD PUSH8 0xFFFFFFFFFFFFFFFF DUP2 GT ISZERO PUSH2 0x144F JUMPI PUSH2 0x144E PUSH2 0x10A7 JUMP JUMPDEST JUMPDEST PUSH2 0x145B DUP5 DUP3 DUP6 ADD PUSH2 0x13FF JUMP JUMPDEST SWAP2 POP POP SWAP3 SWAP2 POP POP JUMP JUMPDEST PUSH0 DUP2 MLOAD SWAP1 POP SWAP2 SWAP1 POP JUMP JUMPDEST PUSH0 DUP3 DUP3 MSTORE PUSH1 0x20 DUP3 ADD SWAP1 POP SWAP3 SWAP2 POP POP JUMP JUMPDEST PUSH0 DUP2 SWAP1 POP PUSH1 0x20 DUP3 ADD SWAP1 POP SWAP2 SWAP1 POP JUMP JUMPDEST PUSH2 0x1496 DUP2 PUSH2 0x13C2 JUMP JUMPDEST DUP3 MSTORE POP POP JUMP JUMPDEST PUSH0 PUSH2 0x14A7 DUP4 DUP4 PUSH2 0x148D JUMP JUMPDEST PUSH1 0x20 DUP4 ADD SWAP1 POP SWAP3 SWAP2 POP POP JUMP JUMPDEST PUSH0 PUSH1 0x20 DUP3 ADD SWAP1 POP SWAP2 SWAP1 POP JUMP JUMPDEST PUSH0 PUSH2 0x14C9 DUP3 PUSH2 0x1464 JUMP JUMPDEST PUSH2 0x14D3 DUP2 DUP6 PUSH2 0x146E JUMP JUMPDEST SWAP4 POP PUSH2 0x14DE DUP4 PUSH2 0x147E JUMP JUMPDEST DUP1 PUSH0 JUMPDEST DUP4 DUP2 LT ISZERO PUSH2 0x150E JUMPI DUP2 MLOAD PUSH2 0x14F5 DUP9 DUP3 PUSH2 0x149C JUMP JUMPDEST SWAP8 POP PUSH2 0x1500 DUP4 PUSH2 0x14B3 JUMP JUMPDEST SWAP3 POP POP PUSH1 0x1 DUP2 ADD SWAP1 POP PUSH2 0x14E1 JUMP JUMPDEST POP DUP6 SWAP4 POP POP POP POP SWAP3 SWAP2 POP POP JUMP JUMPDEST PUSH0 PUSH1 0x20 DUP3 ADD SWAP1 POP DUP2 DUP2 SUB PUSH0 DUP4 ADD MSTORE PUSH2 0x1533 DUP2 DUP5 PUSH2 0x14BF JUMP JUMPDEST SWAP1 POP SWAP3 SWAP2 POP POP JUMP JUMPDEST PUSH0 DUP3 DUP3 MSTORE PUSH1 0x20 DUP3 ADD SWAP1 POP SWAP3 SWAP2 POP POP JUMP JUMPDEST PUSH0 PUSH2 0x1555 DUP3 PUSH2 0x1180 JUMP JUMPDEST PUSH2 0x155F DUP2 DUP6 PUSH2 0x153B JUMP JUMPDEST SWAP4 POP PUSH2 0x156F DUP2 DUP6 PUSH1 0x20 DUP7 ADD PUSH2 0x119A JUMP JUMPDEST PUSH2 0x1578 DUP2 PUSH2 0x11A8 JUMP JUMPDEST DUP5 ADD SWAP2 POP POP SWAP3 SWAP2 POP POP JUMP JUMPDEST PUSH0 PUSH1 0x20 DUP3 ADD SWAP1 POP DUP2 DUP2 SUB PUSH0 DUP4 ADD MSTORE PUSH2 0x159B DUP2 DUP5 PUSH2 0x154B JUMP JUMPDEST SWAP1 POP SWAP3 SWAP2 POP POP JUMP JUMPDEST PUSH2 0x15AC DUP2 PUSH2 0x13C2 JUMP JUMPDEST DUP2 EQ PUSH2 0x15B6 JUMPI PUSH0 DUP1 REVERT JUMPDEST POP JUMP JUMPDEST PUSH0 DUP2 CALLDATALOAD SWAP1 POP PUSH2 0x15C7 DUP2 PUSH2 0x15A3 JUMP JUMPDEST SWAP3 SWAP2 POP POP JUMP JUMPDEST PUSH0 PUSH1 0x20 DUP3 DUP5 SUB SLT ISZERO PUSH2 0x15E2 JUMPI PUSH2 0x15E1 PUSH2 0x10A3 JUMP JUMPDEST JUMPDEST PUSH0 PUSH2 0x15EF DUP5 DUP3 DUP6 ADD PUSH2 0x15B9 JUMP JUMPDEST SWAP2 POP POP SWAP3 SWAP2 POP POP JUMP JUMPDEST PUSH0 DUP1 REVERT JUMPDEST PUSH32 0x4E487B7100000000000000000000000000000000000000000000000000000000 PUSH0 MSTORE PUSH1 0x41 PUSH1 0x4 MSTORE PUSH1 0x24 PUSH0 REVERT JUMPDEST PUSH2 0x1632 DUP3 PUSH2 0x11A8 JUMP JUMPDEST DUP2 ADD DUP2 DUP2 LT PUSH8 0xFFFFFFFFFFFFFFFF DUP3 GT OR ISZERO PUSH2 0x1651 JUMPI PUSH2 0x1650 PUSH2 0x15FC JUMP JUMPDEST JUMPDEST DUP1 PUSH1 0x40 MSTORE POP POP POP JUMP JUMPDEST PUSH0 PUSH2 0x1663 PUSH2 0x109A JUMP JUMPDEST SWAP1 POP PUSH2 0x166F DUP3 DUP3 PUSH2 0x1629 JUMP JUMPDEST SWAP2 SWAP1 POP JUMP JUMPDEST PUSH0 PUSH8 0xFFFFFFFFFFFFFFFF DUP3 GT ISZERO PUSH2 0x168E JUMPI PUSH2 0x168D PUSH2 0x15FC JUMP JUMPDEST JUMPDEST PUSH2 0x1697 DUP3 PUSH2 0x11A8 JUMP JUMPDEST SWAP1 POP PUSH1 0x20 DUP2 ADD SWAP1 POP SWAP2 SWAP1 POP JUMP JUMPDEST DUP3 DUP2 DUP4 CALLDATACOPY PUSH0 DUP4 DUP4 ADD MSTORE POP POP POP JUMP JUMPDEST PUSH0 PUSH2 0x16C4 PUSH2 0x16BF DUP5 PUSH2 0x1674 JUMP JUMPDEST PUSH2 0x165A JUMP JUMPDEST SWAP1 POP DUP3 DUP2 MSTORE PUSH1 0x20 DUP2 ADD DUP5 DUP5 DUP5 ADD GT ISZERO PUSH2 0x16E0 JUMPI PUSH2 0x16DF PUSH2 0x15F8 JUMP JUMPDEST JUMPDEST PUSH2 0x16EB DUP5 DUP3 DUP6 PUSH2 0x16A4 JUMP JUMPDEST POP SWAP4 SWAP3 POP POP POP JUMP JUMPDEST PUSH0 DUP3 PUSH1 0x1F DUP4 ADD SLT PUSH2 0x1707 JUMPI PUSH2 0x1706 PUSH2 0x10AB JUMP JUMPDEST JUMPDEST DUP2 CALLDATALOAD PUSH2 0x1717 DUP5 DUP3 PUSH1 0x20 DUP7 ADD PUSH2 0x16B2 JUMP JUMPDEST SWAP2 POP POP SWAP3 SWAP2 POP POP JUMP JUMPDEST PUSH0 DUP1 PUSH1 0x40 DUP4 DUP6 SUB SLT ISZERO PUSH2 0x1736 JUMPI PUSH2 0x1735 PUSH2 0x10A3 JUMP JUMPDEST JUMPDEST PUSH0 DUP4 ADD CALLDATALOAD PUSH8 0xFFFFFFFFFFFFFFFF DUP2 GT ISZERO PUSH2 0x1753 JUMPI PUSH2 0x1752 PUSH2 0x10A7 JUMP JUMPDEST JUMPDEST PUSH2 0x175F DUP6 DUP3 DUP7 ADD PUSH2 0x16F3 JUMP JUMPDEST SWAP3 POP POP PUSH1 0x20 PUSH2 0x1770 DUP6 DUP3 DUP7 ADD PUSH2 0x1364 JUMP JUMPDEST SWAP2 POP POP SWAP3 POP SWAP3 SWAP1 POP JUMP JUMPDEST PUSH2 0x1783 DUP2 PUSH2 0x11F0 JUMP JUMPDEST DUP3 MSTORE POP POP JUMP JUMPDEST PUSH0 PUSH1 0xC0 DUP3 ADD SWAP1 POP DUP2 DUP2 SUB PUSH0 DUP4 ADD MSTORE PUSH2 0x17A1 DUP2 DUP10 PUSH2 0x154B JUMP JUMPDEST SWAP1 POP DUP2 DUP2 SUB PUSH1 0x20 DUP4 ADD MSTORE PUSH2 0x17B5 DUP2 DUP9 PUSH2 0x154B JUMP JUMPDEST SWAP1 POP PUSH2 0x17C4 PUSH1 0x40 DUP4 ADD DUP8 PUSH2 0x177A JUMP JUMPDEST PUSH2 0x17D1 PUSH1 0x60 DUP4 ADD DUP7 PUSH2 0x177A JUMP JUMPDEST PUSH2 0x17DE PUSH1 0x80 DUP4 ADD DUP6 PUSH2 0x177A JUMP JUMPDEST DUP2 DUP2 SUB PUSH1 0xA0 DUP4 ADD MSTORE PUSH2 0x17F0 DUP2 DUP5 PUSH2 0x154B JUMP JUMPDEST SWAP1 POP SWAP8 SWAP7 POP POP POP POP POP POP POP JUMP JUMPDEST PUSH0 DUP1 PUSH0 PUSH1 0x40 DUP5 DUP7 SUB SLT ISZERO PUSH2 0x1814 JUMPI PUSH2 0x1813 PUSH2 0x10A3 JUMP JUMPDEST JUMPDEST PUSH0 PUSH2 0x1821 DUP7 DUP3 DUP8 ADD PUSH2 0x1364 JUMP JUMPDEST SWAP4 POP POP PUSH1 0x20 DUP5 ADD CALLDATALOAD PUSH8 0xFFFFFFFFFFFFFFFF DUP2 GT ISZERO PUSH2 0x1842 JUMPI PUSH2 0x1841 PUSH2 0x10A7 JUMP JUMPDEST JUMPDEST PUSH2 0x184E DUP7 DUP3 DUP8 ADD PUSH2 0x10B7 JUMP JUMPDEST SWAP3 POP SWAP3 POP POP SWAP3 POP SWAP3 POP SWAP3 JUMP JUMPDEST PUSH0 DUP2 SWAP1 POP SWAP3 SWAP2 POP POP JUMP JUMPDEST PUSH0 PUSH2 0x186F DUP4 DUP6 PUSH2 0x185A JUMP JUMPDEST SWAP4 POP PUSH2 0x187C DUP4 DUP6 DUP5 PUSH2 0x16A4 JUMP JUMPDEST DUP3 DUP5 ADD SWAP1 POP SWAP4 SWAP3 POP POP POP JUMP JUMPDEST PUSH0 PUSH2 0x1894 DUP3 DUP5 DUP7 PUSH2 0x1864 JUMP JUMPDEST SWAP2 POP DUP2 SWAP1 POP SWAP4 SWAP3 POP POP POP JUMP JUMPDEST PUSH32 0x4E487B7100000000000000000000000000000000000000000000000000000000 PUSH0 MSTORE PUSH1 0x22 PUSH1 0x4 MSTORE PUSH1 0x24 PUSH0 REVERT JUMPDEST PUSH0 PUSH1 0x2 DUP3 DIV SWAP1 POP PUSH1 0x1 DUP3 AND DUP1 PUSH2 0x18E4 JUMPI PUSH1 0x7F DUP3 AND SWAP2 POP JUMPDEST PUSH1 0x20 DUP3 LT DUP2 SUB PUSH2 0x18F7 JUMPI PUSH2 0x18F6 PUSH2 0x18A0 JUMP JUMPDEST JUMPDEST POP SWAP2 SWAP1 POP JUMP JUMPDEST PUSH32 0x4E487B7100000000000000000000000000000000000000000000000000000000 PUSH0 MSTORE PUSH1 0x32 PUSH1 0x4 MSTORE PUSH1 0x24 PUSH0 REVERT JUMPDEST PUSH32 0x4F6E6C792061646D696E732063616E206578656375746520746869732066756E PUSH0 DUP3 ADD MSTORE PUSH32 0x6374696F6E000000000000000000000000000000000000000000000000000000 PUSH1 0x20 DUP3 ADD MSTORE POP JUMP JUMPDEST PUSH0 PUSH2 0x1984 PUSH1 0x25 DUP4 PUSH2 0x153B JUMP JUMPDEST SWAP2 POP PUSH2 0x198F DUP3 PUSH2 0x192A JUMP JUMPDEST PUSH1 0x40 DUP3 ADD SWAP1 POP SWAP2 SWAP1 POP JUMP JUMPDEST PUSH0 PUSH1 0x20 DUP3 ADD SWAP1 POP DUP2 DUP2 SUB PUSH0 DUP4 ADD MSTORE PUSH2 0x19B1 DUP2 PUSH2 0x1978 JUMP JUMPDEST SWAP1 POP SWAP2 SWAP1 POP JUMP JUMPDEST PUSH0 DUP2 SWAP1 POP DUP2 PUSH0 MSTORE PUSH1 0x20 PUSH0 KECCAK256 SWAP1 POP SWAP2 SWAP1 POP JUMP JUMPDEST PUSH0 DUP2 SLOAD PUSH2 0x19D6 DUP2 PUSH2 0x18CD JUMP JUMPDEST PUSH2 0x19E0 DUP2 DUP7 PUSH2 0x185A JUMP JUMPDEST SWAP5 POP PUSH1 0x1 DUP3 AND PUSH0 DUP2 EQ PUSH2 0x19FA JUMPI PUSH1 0x1 DUP2 EQ PUSH2 0x1A0F JUMPI PUSH2 0x1A41 JUMP JUMPDEST PUSH1 0xFF NOT DUP4 AND DUP7 MSTORE DUP2 ISZERO ISZERO DUP3 MUL DUP7 ADD SWAP4 POP PUSH2 0x1A41 JUMP JUMPDEST PUSH2 0x1A18 DUP6 PUSH2 0x19B8 JUMP JUMPDEST PUSH0 JUMPDEST DUP4 DUP2 LT ISZERO PUSH2 0x1A39 JUMPI DUP2 SLOAD DUP2 DUP10 ADD MSTORE PUSH1 0x1 DUP3 ADD SWAP2 POP PUSH1 0x20 DUP2 ADD SWAP1 POP PUSH2 0x1A1A JUMP JUMPDEST DUP4 DUP9 ADD SWAP6 POP POP POP JUMPDEST POP POP POP SWAP3 SWAP2 POP POP JUMP JUMPDEST PUSH0 PUSH2 0x1A55 DUP3 DUP5 PUSH2 0x19CA JUMP JUMPDEST SWAP2 POP DUP2 SWAP1 POP SWAP3 SWAP2 POP POP JUMP JUMPDEST PUSH0 DUP2 SLOAD SWAP1 POP PUSH2 0x1A6E DUP2 PUSH2 0x18CD JUMP JUMPDEST SWAP1 POP SWAP2 SWAP1 POP JUMP JUMPDEST PUSH0 DUP2 SWAP1 POP DUP2 PUSH0 MSTORE PUSH1 0x20 PUSH0 KECCAK256 SWAP1 POP SWAP2 SWAP1 POP JUMP JUMPDEST PUSH0 PUSH1 0x20 PUSH1 0x1F DUP4 ADD DIV SWAP1 POP SWAP2 SWAP1 POP JUMP JUMPDEST PUSH0 DUP3 DUP3 SHL SWAP1 POP SWAP3 SWAP2 POP POP JUMP JUMPDEST PUSH0 PUSH1 0x8 DUP4 MUL PUSH2 0x1AD1 PUSH32 0xFFFFFFFFFFFFFFFFFFFFFFFFFFFFFFFFFFFFFFFFFFFFFFFFFFFFFFFFFFFFFFFF DUP3 PUSH2 0x1A96 JUMP JUMPDEST PUSH2 0x1ADB DUP7 DUP4 PUSH2 0x1A96 JUMP JUMPDEST SWAP6 POP DUP1 NOT DUP5 AND SWAP4 POP DUP1 DUP7 AND DUP5 OR SWAP3 POP POP POP SWAP4 SWAP3 POP POP POP JUMP JUMPDEST PUSH0 DUP2 SWAP1 POP SWAP2 SWAP1 POP JUMP JUMPDEST PUSH0 PUSH2 0x1B16 PUSH2 0x1B11 PUSH2 0x1B0C DUP5 PUSH2 0x11F0 JUMP JUMPDEST PUSH2 0x1AF3 JUMP JUMPDEST PUSH2 0x11F0 JUMP JUMPDEST SWAP1 POP SWAP2 SWAP1 POP JUMP JUMPDEST PUSH0 DUP2 SWAP1 POP SWAP2 SWAP1 POP JUMP JUMPDEST PUSH2 0x1B2F DUP4 PUSH2 0x1AFC JUMP JUMPDEST PUSH2 0x1B43 PUSH2 0x1B3B DUP3 PUSH2 0x1B1D JUMP JUMPDEST DUP5 DUP5 SLOAD PUSH2 0x1AA2 JUMP JUMPDEST DUP3 SSTORE POP POP POP POP JUMP JUMPDEST PUSH0 SWAP1 JUMP JUMPDEST PUSH2 0x1B57 PUSH2 0x1B4B JUMP JUMPDEST PUSH2 0x1B62 DUP2 DUP5 DUP5 PUSH2 0x1B26 JUMP JUMPDEST POP POP POP JUMP JUMPDEST JUMPDEST DUP2 DUP2 LT ISZERO PUSH2 0x1B85 JUMPI PUSH2 0x1B7A PUSH0 DUP3 PUSH2 0x1B4F JUMP JUMPDEST PUSH1 0x1 DUP2 ADD SWAP1 POP PUSH2 0x1B68 JUMP JUMPDEST POP POP JUMP JUMPDEST PUSH1 0x1F DUP3 GT ISZERO PUSH2 0x1BCA JUMPI PUSH2 0x1B9B DUP2 PUSH2 0x19B8 JUMP JUMPDEST PUSH2 0x1BA4 DUP5 PUSH2 0x1A87 JUMP JUMPDEST DUP2 ADD PUSH1 0x20 DUP6 LT ISZERO PUSH2 0x1BB3 JUMPI DUP2 SWAP1 POP JUMPDEST PUSH2 0x1BC7 PUSH2 0x1BBF DUP6 PUSH2 0x1A87 JUMP JUMPDEST DUP4 ADD DUP3 PUSH2 0x1B67 JUMP JUMPDEST POP POP JUMPDEST POP POP POP JUMP JUMPDEST PUSH0 DUP3 DUP3 SHR SWAP1 POP SWAP3 SWAP2 POP POP JUMP JUMPDEST PUSH0 PUSH2 0x1BEA PUSH0 NOT DUP5 PUSH1 0x8 MUL PUSH2 0x1BCF JUMP JUMPDEST NOT DUP1 DUP4 AND SWAP2 POP POP SWAP3 SWAP2 POP POP JUMP JUMPDEST PUSH0 PUSH2 0x1C02 DUP4 DUP4 PUSH2 0x1BDB JUMP JUMPDEST SWAP2 POP DUP3 PUSH1 0x2 MUL DUP3 OR SWAP1 POP SWAP3 SWAP2 POP POP JUMP JUMPDEST DUP2 DUP2 SUB PUSH2 0x1C20 JUMPI POP POP PUSH2 0x1CF5 JUMP JUMPDEST PUSH2 0x1C29 DUP3 PUSH2 0x1A60 JUMP JUMPDEST PUSH8 0xFFFFFFFFFFFFFFFF DUP2 GT ISZERO PUSH2 0x1C42 JUMPI PUSH2 0x1C41 PUSH2 0x15FC JUMP JUMPDEST JUMPDEST PUSH2 0x1C4C DUP3 SLOAD PUSH2 0x18CD JUMP JUMPDEST PUSH2 0x1C57 DUP3 DUP3 DUP6 PUSH2 0x1B89 JUMP JUMPDEST PUSH0 PUSH1 0x1F DUP4 GT PUSH1 0x1 DUP2 EQ PUSH2 0x1C84 JUMPI PUSH0 DUP5 ISZERO PUSH2 0x1C72 JUMPI DUP3 DUP8 ADD SLOAD SWAP1 POP JUMPDEST PUSH2 0x1C7C DUP6 DUP3 PUSH2 0x1BF7 JUMP JUMPDEST DUP7 SSTORE POP PUSH2 0x1CEE JUMP JUMPDEST PUSH1 0x1F NOT DUP5 AND PUSH2 0x1C92 DUP8 PUSH2 0x1A75 JUMP JUMPDEST SWAP7 POP PUSH2 0x1C9D DUP7 PUSH2 0x19B8 JUMP JUMPDEST PUSH0 JUMPDEST DUP3 DUP2 LT ISZERO PUSH2 0x1CC4 JUMPI DUP5 DUP10 ADD SLOAD DUP3 SSTORE PUSH1 0x1 DUP3 ADD SWAP2 POP PUSH1 0x1 DUP6 ADD SWAP5 POP PUSH1 0x20 DUP2 ADD SWAP1 POP PUSH2 0x1C9F JUMP JUMPDEST DUP7 DUP4 LT ISZERO PUSH2 0x1CE1 JUMPI DUP5 DUP10 ADD SLOAD PUSH2 0x1CDD PUSH1 0x1F DUP10 AND DUP3 PUSH2 0x1BDB JUMP JUMPDEST DUP4 SSTORE POP JUMPDEST PUSH1 0x1 PUSH1 0x2 DUP9 MUL ADD DUP9 SSTORE POP POP POP JUMPDEST POP POP POP POP POP POP JUMPDEST JUMP JUMPDEST PUSH0 DUP1 REVERT JUMPDEST PUSH0 DUP1 REVERT JUMPDEST PUSH0 DUP1 REVERT JUMPDEST PUSH0 DUP1 DUP4 CALLDATALOAD PUSH1 0x1 PUSH1 0x20 SUB DUP5 CALLDATASIZE SUB SUB DUP2 SLT PUSH2 0x1D1F JUMPI PUSH2 0x1D1E PUSH2 0x1CF7 JUMP JUMPDEST JUMPDEST DUP1 DUP5 ADD SWAP3 POP DUP3 CALLDATALOAD SWAP2 POP PUSH8 0xFFFFFFFFFFFFFFFF DUP3 GT ISZERO PUSH2 0x1D41 JUMPI PUSH2 0x1D40 PUSH2 0x1CFB JUMP JUMPDEST JUMPDEST PUSH1 0x20 DUP4 ADD SWAP3 POP PUSH1 0x1 DUP3 MUL CALLDATASIZE SUB DUP4 SGT ISZERO PUSH2 0x1D5D JUMPI PUSH2 0x1D5C PUSH2 0x1CFF JUMP JUMPDEST JUMPDEST POP SWAP3 POP SWAP3 SWAP1 POP JUMP JUMPDEST PUSH0 DUP3 SWAP1 POP SWAP3 SWAP2 POP POP JUMP JUMPDEST PUSH2 0x1D79 DUP4 DUP4 PUSH2 0x1D65 JUMP JUMPDEST PUSH8 0xFFFFFFFFFFFFFFFF DUP2 GT ISZERO PUSH2 0x1D92 JUMPI PUSH2 0x1D91 PUSH2 0x15FC JUMP JUMPDEST JUMPDEST PUSH2 0x1D9C DUP3 SLOAD PUSH2 0x18CD JUMP JUMPDEST PUSH2 0x1DA7 DUP3 DUP3 DUP6 PUSH2 0x1B89 JUMP JUMPDEST PUSH0 PUSH1 0x1F DUP4 GT PUSH1 0x1 DUP2 EQ PUSH2 0x1DD4 JUMPI PUSH0 DUP5 ISZERO PUSH2 0x1DC2 JUMPI DUP3 DUP8 ADD CALLDATALOAD SWAP1 POP JUMPDEST PUSH2 0x1DCC DUP6 DUP3 PUSH2 0x1BF7 JUMP JUMPDEST DUP7 SSTORE POP PUSH2 0x1E33 JUMP JUMPDEST PUSH1 0x1F NOT DUP5 AND PUSH2 0x1DE2 DUP7 PUSH2 0x19B8 JUMP JUMPDEST PUSH0 JUMPDEST DUP3 DUP2 LT ISZERO PUSH2 0x1E09 JUMPI DUP5 DUP10 ADD CALLDATALOAD DUP3 SSTORE PUSH1 0x1 DUP3 ADD SWAP2 POP PUSH1 0x20 DUP6 ADD SWAP5 POP PUSH1 0x20 DUP2 ADD SWAP1 POP PUSH2 0x1DE4 JUMP JUMPDEST DUP7 DUP4 LT ISZERO PUSH2 0x1E26 JUMPI DUP5 DUP10 ADD CALLDATALOAD PUSH2 0x1E22 PUSH1 0x1F DUP10 AND DUP3 PUSH2 0x1BDB JUMP JUMPDEST DUP4 SSTORE POP JUMPDEST PUSH1 0x1 PUSH1 0x2 DUP9 MUL ADD DUP9 SSTORE POP POP POP JUMPDEST POP POP POP POP POP POP POP JUMP JUMPDEST PUSH2 0x1E47 DUP4 DUP4 DUP4 PUSH2 0x1D6F JUMP JUMPDEST POP POP POP JUMP JUMPDEST PUSH0 DUP2 CALLDATALOAD PUSH2 0x1E58 DUP2 PUSH2 0x134E JUMP JUMPDEST DUP1 SWAP2 POP POP SWAP2 SWAP1 POP JUMP JUMPDEST PUSH0 DUP2 PUSH0 SHL SWAP1 POP SWAP2 SWAP1 POP JUMP JUMPDEST PUSH0 PUSH32 0xFFFFFFFFFFFFFFFFFFFFFFFFFFFFFFFFFFFFFFFFFFFFFFFFFFFFFFFFFFFFFFFF PUSH2 0x1E97 DUP5 PUSH2 0x1E61 JUMP JUMPDEST SWAP4 POP DUP1 NOT DUP4 AND SWAP3 POP DUP1 DUP5 AND DUP4 OR SWAP2 POP POP SWAP3 SWAP2 POP POP JUMP JUMPDEST PUSH2 0x1EB6 DUP3 PUSH2 0x1AFC JUMP JUMPDEST PUSH2 0x1EC9 PUSH2 0x1EC2 DUP3 PUSH2 0x1B1D JUMP JUMPDEST DUP4 SLOAD PUSH2 0x1E6C JUMP JUMPDEST DUP3 SSTORE POP POP POP JUMP JUMPDEST PUSH0 DUP2 ADD PUSH0 DUP4 ADD PUSH2 0x1EE0 DUP2 DUP6 PUSH2 0x1D03 JUMP JUMPDEST PUSH2 0x1EEB DUP2 DUP4 DUP7 PUSH2 0x1E3C JUMP JUMPDEST POP POP POP POP PUSH1 0x1 DUP2 ADD PUSH1 0x20 DUP4 ADD PUSH2 0x1F01 DUP2 DUP6 PUSH2 0x1D03 JUMP JUMPDEST PUSH2 0x1F0C DUP2 DUP4 DUP7 PUSH2 0x1E3C JUMP JUMPDEST POP POP POP POP PUSH1 0x2 DUP2 ADD PUSH1 0x40 DUP4 ADD DUP1 PUSH2 0x1F22 DUP2 PUSH2 0x1E4C JUMP JUMPDEST SWAP1 POP PUSH2 0x1F2E DUP2 DUP5 PUSH2 0x1EAD JUMP JUMPDEST POP POP POP PUSH1 0x3 DUP2 ADD PUSH1 0x60 DUP4 ADD DUP1 PUSH2 0x1F43 DUP2 PUSH2 0x1E4C JUMP JUMPDEST SWAP1 POP PUSH2 0x1F4F DUP2 DUP5 PUSH2 0x1EAD JUMP JUMPDEST POP POP POP PUSH1 0x4 DUP2 ADD PUSH1 0x80 DUP4 ADD DUP1 PUSH2 0x1F64 DUP2 PUSH2 0x1E4C JUMP JUMPDEST SWAP1 POP PUSH2 0x1F70 DUP2 DUP5 PUSH2 0x1EAD JUMP JUMPDEST POP POP POP PUSH1 0x5 DUP2 ADD PUSH1 0xA0 DUP4 ADD PUSH2 0x1F85 DUP2 DUP6 PUSH2 0x1D03 JUMP JUMPDEST PUSH2 0x1F90 DUP2 DUP4 DUP7 PUSH2 0x1E3C JUMP JUMPDEST POP POP POP POP POP POP JUMP JUMPDEST PUSH2 0x1FA2 DUP3 DUP3 PUSH2 0x1ED0 JUMP JUMPDEST POP POP JUMP JUMPDEST PUSH32 0x4E487B7100000000000000000000000000000000000000000000000000000000 PUSH0 MSTORE PUSH1 0x11 PUSH1 0x4 MSTORE PUSH1 0x24 PUSH0 REVERT JUMPDEST PUSH0 PUSH2 0x1FDD DUP3 PUSH2 0x11F0 JUMP JUMPDEST SWAP2 POP PUSH2 0x1FE8 DUP4 PUSH2 0x11F0 JUMP JUMPDEST SWAP3 POP DUP3 DUP3 SUB SWAP1 POP DUP2 DUP2 GT ISZERO PUSH2 0x2000 JUMPI PUSH2 0x1FFF PUSH2 0x1FA6 JUMP JUMPDEST JUMPDEST SWAP3 SWAP2 POP POP JUMP JUMPDEST PUSH0 PUSH2 0x2010 DUP3 PUSH2 0x11F0 JUMP JUMPDEST SWAP2 POP PUSH2 0x201B DUP4 PUSH2 0x11F0 JUMP JUMPDEST SWAP3 POP DUP3 DUP3 ADD SWAP1 POP DUP1 DUP3 GT ISZERO PUSH2 0x2033 JUMPI PUSH2 0x2032 PUSH2 0x1FA6 JUMP JUMPDEST JUMPDEST SWAP3 SWAP2 POP POP JUMP JUMPDEST PUSH0 DUP2 SLOAD SWAP1 POP PUSH2 0x2047 DUP2 PUSH2 0x18CD JUMP JUMPDEST SWAP1 POP SWAP2 SWAP1 POP JUMP JUMPDEST DUP2 DUP2 SUB PUSH2 0x205C JUMPI POP POP PUSH2 0x2131 JUMP JUMPDEST PUSH2 0x2065 DUP3 PUSH2 0x2039 JUMP JUMPDEST PUSH8 0xFFFFFFFFFFFFFFFF DUP2 GT ISZERO PUSH2 0x207E JUMPI PUSH2 0x207D PUSH2 0x15FC JUMP JUMPDEST JUMPDEST PUSH2 0x2088 DUP3 SLOAD PUSH2 0x18CD JUMP JUMPDEST PUSH2 0x2093 DUP3 DUP3 DUP6 PUSH2 0x1B89 JUMP JUMPDEST PUSH0 PUSH1 0x1F DUP4 GT PUSH1 0x1 DUP2 EQ PUSH2 0x20C0 JUMPI PUSH0 DUP5 ISZERO PUSH2 0x20AE JUMPI DUP3 DUP8 ADD SLOAD SWAP1 POP JUMPDEST PUSH2 0x20B8 DUP6 DUP3 PUSH2 0x1BF7 JUMP JUMPDEST DUP7 SSTORE POP PUSH2 0x212A JUMP JUMPDEST PUSH1 0x1F NOT DUP5 AND PUSH2 0x20CE DUP8 PUSH2 0x19B8 JUMP JUMPDEST SWAP7 POP PUSH2 0x20D9 DUP7 PUSH2 0x19B8 JUMP JUMPDEST PUSH0 JUMPDEST DUP3 DUP2 LT ISZERO PUSH2 0x2100 JUMPI DUP5 DUP10 ADD SLOAD DUP3 SSTORE PUSH1 0x1 DUP3 ADD SWAP2 POP PUSH1 0x1 DUP6 ADD SWAP5 POP PUSH1 0x20 DUP2 ADD SWAP1 POP PUSH2 0x20DB JUMP JUMPDEST DUP7 DUP4 LT ISZERO PUSH2 0x211D JUMPI DUP5 DUP10 ADD SLOAD PUSH2 0x2119 PUSH1 0x1F DUP10 AND DUP3 PUSH2 0x1BDB JUMP JUMPDEST DUP4 SSTORE POP JUMPDEST PUSH1 0x1 PUSH1 0x2 DUP9 MUL ADD DUP9 SSTORE POP POP POP JUMPDEST POP POP POP POP POP POP JUMPDEST JUMP JUMPDEST PUSH32 0x4E487B7100000000000000000000000000000000000000000000000000000000 PUSH0 MSTORE PUSH1 0x31 PUSH1 0x4 MSTORE PUSH1 0x24 PUSH0 REVERT INVALID LOG2 PUSH5 0x6970667358 0x22 SLT KECCAK256 CALLDATALOAD 0xA7 0x4C DUP12 PUSH8 0x227371DDD8A9855A PUSH13 0xD25B34A613166B81FAD7655ABE 0xE3 SUB 0xFB PC 0xDC PUSH5 0x736F6C6343 STOP ADDMOD BYTE STOP CALLER "
		},
		"gasEstimates": {
			"creation": {
				"codeDepositCost": "1719600",
				"executionCost": "infinite",
				"totalCost": "infinite"
			},
			"external": {
				"addAdmin(address)": "infinite",
				"addRealState((string,string,uint256,uint256,uint256,string))": "infinite",
				"admins(uint256)": "4967",
				"cities(uint256)": "infinite",
				"deleteRealStateByRegistration(uint256,string)": "infinite",
				"getAdmins()": "infinite",
				"getRealStateByCity(string)": "infinite",
				"realStateMap(string,uint256)": "infinite"
			}
		},
		"methodIdentifiers": {
			"addAdmin(address)": "70480275",
			"addRealState((string,string,uint256,uint256,uint256,string))": "2c233de6",
			"admins(uint256)": "14bfd6d0",
			"cities(uint256)": "6a51b918",
			"deleteRealStateByRegistration(uint256,string)": "ab6c073a",
			"getAdmins()": "31ae450b",
			"getRealStateByCity(string)": "0de06237",
			"realStateMap(string,uint256)": "7946bcf4"
		}
	},
	"abi": [
		{
			"inputs": [
				{
					"internalType": "address",
					"name": "newAdmin",
					"type": "address"
				}
			],
			"name": "addAdmin",
			"outputs": [],
			"stateMutability": "nonpayable",
			"type": "function"
		},
		{
			"inputs": [
				{
					"components": [
						{
							"internalType": "string",
							"name": "city",
							"type": "string"
						},
						{
							"internalType": "string",
							"name": "street",
							"type": "string"
						},
						{
							"internalType": "uint256",
							"name": "number",
							"type": "uint256"
						},
						{
							"internalType": "uint256",
							"name": "meters",
							"type": "uint256"
						},
						{
							"internalType": "uint256",
							"name": "registration",
							"type": "uint256"
						},
						{
							"internalType": "string",
							"name": "owner",
							"type": "string"
						}
					],
					"internalType": "struct Shared.RealState",
					"name": "realState",
					"type": "tuple"
				}
			],
			"name": "addRealState",
			"outputs": [],
			"stateMutability": "nonpayable",
			"type": "function"
		},
		{
			"inputs": [
				{
					"internalType": "uint256",
					"name": "",
					"type": "uint256"
				}
			],
			"name": "admins",
			"outputs": [
				{
					"internalType": "address",
					"name": "",
					"type": "address"
				}
			],
			"stateMutability": "view",
			"type": "function"
		},
		{
			"inputs": [
				{
					"internalType": "uint256",
					"name": "",
					"type": "uint256"
				}
			],
			"name": "cities",
			"outputs": [
				{
					"internalType": "string",
					"name": "",
					"type": "string"
				}
			],
			"stateMutability": "view",
			"type": "function"
		},
		{
			"inputs": [
				{
					"internalType": "uint256",
					"name": "_registration",
					"type": "uint256"
				},
				{
					"internalType": "string",
					"name": "city",
					"type": "string"
				}
			],
			"name": "deleteRealStateByRegistration",
			"outputs": [],
			"stateMutability": "nonpayable",
			"type": "function"
		},
		{
			"inputs": [],
			"name": "getAdmins",
			"outputs": [
				{
					"internalType": "address[]",
					"name": "",
					"type": "address[]"
				}
			],
			"stateMutability": "view",
			"type": "function"
		},
		{
			"inputs": [
				{
					"internalType": "string",
					"name": "_city",
					"type": "string"
				}
			],
			"name": "getRealStateByCity",
			"outputs": [
				{
					"components": [
						{
							"internalType": "string",
							"name": "city",
							"type": "string"
						},
						{
							"internalType": "string",
							"name": "street",
							"type": "string"
						},
						{
							"internalType": "uint256",
							"name": "number",
							"type": "uint256"
						},
						{
							"internalType": "uint256",
							"name": "meters",
							"type": "uint256"
						},
						{
							"internalType": "uint256",
							"name": "registration",
							"type": "uint256"
						},
						{
							"internalType": "string",
							"name": "owner",
							"type": "string"
						}
					],
					"internalType": "struct Shared.RealState[]",
					"name": "",
					"type": "tuple[]"
				}
			],
			"stateMutability": "view",
			"type": "function"
		},
		{
			"inputs": [
				{
					"internalType": "string",
					"name": "",
					"type": "string"
				},
				{
					"internalType": "uint256",
					"name": "",
					"type": "uint256"
				}
			],
			"name": "realStateMap",
			"outputs": [
				{
					"internalType": "string",
					"name": "city",
					"type": "string"
				},
				{
					"internalType": "string",
					"name": "street",
					"type": "string"
				},
				{
					"internalType": "uint256",
					"name": "number",
					"type": "uint256"
				},
				{
					"internalType": "uint256",
					"name": "meters",
					"type": "uint256"
				},
				{
					"internalType": "uint256",
					"name": "registration",
					"type": "uint256"
				},
				{
					"internalType": "string",
					"name": "owner",
					"type": "string"
				}
			],
			"stateMutability": "view",
			"type": "function"
		}
	]
}